:020000040800F2
:10000000005000200D0B0008510B0008510B000898
:10001000510B0008510B0008510B000800000000B4
:10002000000000000000000000000000510B00086C
:10003000510B000800000000510B0008510B000894
:10004000510B0008510B0008510B0008510B000820
:10005000510B0008510B0008510B0008510B000810
:10006000510B0008510B0008510B0008510B000800
:10007000510B0008510B0008510B0008510B0008F0
:10008000510B0008510B0008510B0008510B0008E0
:100090007D040008510B0008510B0008510B0008AB
:1000A000510B0008510B0008510B0008510B0008C0
:1000B000510B0008510B00088D090008510B000876
:1000C000510B0008510B0008510B0008510B0008A0
:1000D000510B0008510B0008510B0008510B000890
:1000E000510B0008510B0008510B000800000000E4
:1000F0000000000000000000000000000000000000
:0C01000000000000000000005FF808F1A3
:10010C00E00E000800000020040000200400002085
:10011C0064000020274B1A6822F480321A601A6897
:10012C0022F480221A601A6842F480321A6040F677
:10013C00FF721968880316D4013AFAD1012070476E
:10014C00002070475A6822F0030242F002025A6003
:10015C0040F6FF72596801F00C010829F0D0013A01
:10016C00F8D103207047144A116821F01001116076
:10017C00116841F010011160116821F00701116044
:10018C00116841F00401116059680C4A0A4042F4AC
:10019C00E81242F480625A601A6842F080721A6067
:1001AC0040F6FF7219688901CCD4013AFAD10220C9
:1001BC00704700BF00100240002002400FC0C2FF79
:1001CC007047704710F1FF3000D2704700BFF9E75D
:1001DC007047704770470020704700207047154AE1
:1001EC001549D36943F40003D3614B68012223F40E
:1001FC00706343F440734B604FF080630B610F4BA3
:10020C00A3F840200E4A00BF013AFCD1A3F84020CD
:10021C00A3F85020A3F84C20A3F844204FF4A0528C
:10022C00A3F840204FF48012064B1A604FF4806301
:10023C000B6170470010024000080140005C004058
:10024C00A086010000E100E0F0B500F00F06B5005B
:10025C0005F1804505F5B8452C8840B20028B5BF9E
:10026C0024F0C00424F0F0042405A404B4BF240D2D
:10027C00A40C44F4004444F080042C802C88022903
:10028C0004F4106444EA060405D0032923D029BBE6
:10029C0044F4024101E044F4004141F08001224F5A
:1002AC002980310101F1804100283C8801F5C041D1
:1002BC00384616DA0C601D4941F826302B8823F09D
:1002CC00C0031B051B0D83F4004383F0A0032244E1
:1002DC002B800280F0BD44F40641DEE744F4044177
:1002EC00DBE78C608F893F2A8BBF47F400476FF3A5
:1002FC00CF378F818F81B1F80CC08ABF5709C2F3F9
:10030C00440707F1FF3767F38E2CA1F80CC008499E
:10031C0041F826302B8823F0F0039B049B0C83F4CC
:10032C00304383F08003D2E700000020240000203B
:10033C0044000020F0B548F2800700F00F06B5002D
:10034C0005F1804505F5B8452C88022924F0C00438
:10035C004FEA04544FEA145444EA07042C802C88C6
:10036C0024F0F0044FEA84444FEA944447EA04072B
:10037C002F802C8804F4106444EA06042FD003293F
:10038C0030D091BB44F40241DFF8E0C041F0800171
:10039C002980BCF80040310101F1804110F0800F40
:1003AC0001F5C04102EB0407604621D04FF0000C70
:1003BC000C60C1F804C08F60C1F80CC0298881F0B2
:1003CC00300121F4405189B22980264904EB4202C4
:1003DC0041F826302449028041F82630F0BD44F41F
:1003EC000141D1E744F40641CEE744F40441CBE7A4
:1003FC008C603F2A0F608F8828D86FF3CF378F809F
:10040C008F896FF3CF378F81C2F34407B1F804C0E3
:10041C0067F38E2CA1F804C0B1F80CC067F38E2CD6
:10042C00A1F80CC0298821F0F0018904890C81F411
:10043C00304181F080012980298821F0C001090513
:10044C00090D81F4004181F0B001BDE747F400478C
:10045C008F808F8947F400478F815709013F07F040
:10046C001F07D3E7240000204400002000000020D8
:10047C0038B5424CB4F844305D052CD5FFF7A9FED5
:10048C004FF41C434022A4F840303D4B3D491A80A8
:10049C0080230022A4F84C3008243B4B013C14F080
:1004AC00FF0441F8042B43F8042BF7D14FF6FF322D
:1004BC00324B2146A3F844202046344B0822FFF748
:1004CC00C3FE334B082221468020FFF7BDFE314B83
:1004DC001C6000F06FFA294BB3F84420140429D5A2
:1004EC00B3F8445005F00F05AC0004F1804404F55A
:1004FC00B844238818040CD5224B284653F82530D1
:10050C009847238823F0F0031B051B0D43F0800351
:10051C002380238819060DD51B4B45F0800053F81A
:10052C0025309847238823F0F0031B051B0D43F45B
:10053C0000432380114CB4F844301A050BD5FFF757
:10054C0048FEB4F8403043F00C03A4F840304FF2AE
:10055C00FF73A4F84430094AB2F84430DB040BD5DD
:10056C00B2F8403023F00C031B041B0CA2F84030F3
:10057C004EF6FF73A2F8443038BD00BF005C00405B
:10058C00000000204400002024000020AF060008DA
:10059C00F905000804000020F0B50025C40004F1A2
:1005AC00804404F5C0442368561C03F1005303F542
:1005BC00405376085B00AFB2BE4211D840088000B1
:1005CC0000F18040626000F5B840038823F0C0035E
:1005DC001B051B0D83F4004383F0B0030380F0BDB7
:1005EC0031F8157043F825700135E4E7F8B5144B74
:1005FC00144CB3F84C10227901F07F0191421CBFCE
:10060C0042F08002A3F84C201B8803F03003302BFF
:10061C0014D0256895B1E7882946082F3E4628BF97
:10062C00082600203246FFF7B7FF072FA7EB06037B
:10063C00E38093BF0023AD1925602360F8BD00BF94
:10064C00005C00400400002030B5C20002F1804282
:10065C0002F5C04203465068C0F3090000B31268AB
:10066C00441C02F1005202F540525200641002394F
:10067C0002EB840432F8045BA24221F8025FF9D148
:10068C005B089B0003F1804303F5B8431A8822F002
:10069C00F0029204920C82F4304282F080021A80B2
:1006AC0030BD73B53F4B404CDD68A3F580631B88B0
:1006BC00C5F3090513F4006609D094F90830002B32
:1006CC0017DA002539490120FFF7BEFF2582227A6F
:1006DC0002F07F0312063CD54EB373BB607A06283A
:1006EC000CD0082825D040BB02223149FFF754FF1B
:1006FC001DE0E289238A9A42E9D8E2E7012201A9A6
:10070C00019260890DF10202ADF8023000F086F81A
:10071C00E389BDF8022080209A4288BFADF80230F0
:10072C00BDF80230E380019B2360FFF75FFF02B04E
:10073C0070BD01221F491846D8E7012301930023FD
:10074C000DF1020201A91948ADF8023000F0A4F82D
:10075C00DEE76BB9627A052A05D162892271002223
:10076C0011461046C2E7092A02D16289A274F6E743
:10077C002A46218A0D4800F091F850B90E4A138888
:10078C0023F0F0039B049B0C83F4304383F0800331
:10079C001380238A1D44E389ADB2AB422582C6D8AF
:1007AC00DDE700BF00600040040000200C000020CA
:1007BC00D00B000816000020005C004030B5154C32
:1007CC0091B02088694680F48040C0F380300230BC
:1007DC00FFF73AFF2388104A23F0F0031B051B0D8B
:1007EC0043F4004343F0C00323804FF4800342F2F0
:1007FC00107113614024002300EBD0704010834231
:10080C0001DB11B030BD3DF9135001338D42C8BF2F
:10081C001461F4E7045C0040000C014000F47F43D9
:10082C00B3F5007F10D003D8B3F5807F07D07047A5
:10083C00B3F5407F10D0B3F5C06F09D070470F4BA4
:10084C000B601223138070470D4B0B60C023F9E72C
:10085C000C4B0B600A23F5E7C0B20328F3D8DFE892
:10086C0000F00207090B084B0B600B681B78E9E7DB
:10087C00064BF9E7064BF7E7064BF5E7D20B0008FA
:10088C00E40B0008A40C0008AE0C0008B20C000825
:10089C00C80C0008DC0C00080020704710B5047868
:1008AC00012C0DD143780B2B0AD141888388054A42
:1008BC00D154002211461046FFF76EFE204610BDA3
:1008CC000024FBE71800002010B50446ADF5007DB0
:1008DC004FF400720449684600F09CF83DF914008E
:1008EC000DF5007D10BD00BFE00C00082DE9F043B4
:1008FC000027214D3A46AC88AB884FF47A38202B30
:10090C0088BF20244FF47A59AE68A1B0E4B2FBB290
:10091C009C421CD802B1AE60184AA4B2108813884D
:10092C00C0F3803023F0F0031B051B0D43F4404350
:10093C0043F080031380694662000430FFF72CFEFD
:10094C00AB881C1BA4B2AC8021B0BDE8F08308FBC3
:10095C0006F0B0FBF9F0C0B2FFF7B6FF731CB3F5AD
:10096C007A5FA4BFA6F579533F3B2DF817000122FF
:10097C0001371E46CBE700BF18000020085C004082
:10098C006FF00102084B1A61084A938810339BB22E
:10099C0093809388B3F5104F04D38021044B1961D5
:1009AC0000239380704700BF00080040180000200F
:1009BC00000C0140012108B50846104B4022FFF7FE
:1009CC00B9FC0F4B402201218220FFF7B3FC0D4AEA
:1009DC004FF08040D3690C4943F00403D3614722A4
:1009EC000A4B9A6240F2E732DA621A6842F08002ED
:1009FC001A600122DA6008601A6008BDC907000895
:100A0C00F90800080010024000E100E00008004076
:100A1C00704700BF844641EA000313F0030349D139
:100A2C00403A23D30B6803604B6843608B68836048
:100A3C00CB68C3600B6903614B6943618B6983614C
:100A4C00CB69C3610B6A03624B6A43628B6A836234
:100A5C00CB6AC3620B6B03634B6B43638B6B83631C
:100A6C00CB6BC36340304031403ADBD230320BD3D6
:100A7C000B6803604B6843608B688360CB68C36012
:100A8C0010301031103AF3D20C3205D351F8043B2C
:100A9C0040F8043B043AF9D2043208D0D2071CBF08
:100AAC0011F8013B00F8013B01D30B880380604631
:100ABC00704700BF082A13D38B07B1D010F0030383
:100ACC00AED0C3F10403D21ADB071CBF11F8013BF3
:100ADC0000F8013BA4D331F8023B20F8023B9FE71E
:100AEC00043AD9D3013A11F8013B00F8013BF9D291
:100AFC000B7803704B7843708B788370604670472B
:100B0C00002103E00A4B5B584350043109480A4B5F
:100B1C0042189A42F6D3094A02E0002342F8043BF9
:100B2C00074B9A42F9D3FFF74CFB00F00DF87047D6
:100B3C00E00E00080000002004000020040000204B
:100B4C0064000020FEE7000038B5FFF7E3FA1A4A0C
:100B5C001A4C936943F00C0393612368A2F5843219
:100B6C0023F0704343F040532360236823F07063F9
:100B7C0043F040732360236823F4700343F4401361
:100B8C002360536823F00F0343F00403536053684E
:100B9C0023F0F00343F040035360FFF720FB62B6F1
:100BAC00074DFFF735FFE368284683F02003E36029
:100BBC00FFF708FBF5E700BF00100240000C0140F6
:100BCC00A086010000001201100100000008C016F0
:100BDC00DF050100010203010902C00003010080CE
:100BEC00320904000000010100000A240100014642
:100BFC00000201020C2402010101000100000000AE
:100C0C000C2402020102000100000000092403056B
:100C1C000103000300092403060101000400092458
:100C2C000603010101000009240604020101000071
:100C3C000904010000010200000904010101010284
:100C4C000000072401060101000B2402010102101F
:100C5C0001803E00090582014000010000072501CA
:100C6C000000000009040200000102000009040257
:100C7C00010101020000072401010101000B240203
:100C8C000101021001803E00090501014000010034
:100C9C0000072501000000000A0600020000000801
:100CAC00010004030904160343004F004B005000DD
:100CBC004F005700450048004500550014035500EF
:100CCC0053004200200041007500640069006F0071
:100CDC00040331000000110322063209400C4D0FB1
:100CEC0057125E156218631B5F1E56214924352767
:100CFC001C2AFC2CD52FA73271353338EC3A9C3D8D
:100D0C004340DF427245F947764AE74C4C4FA551B8
:100D1C00F15331566358875A9E5CA65EA0608B6275
:100D2C0066643266EF679B69376BC26C3D6EA76F6A
:100D3C00FF7046727C739F74B175B0769E7778782D
:100D4C004179F679997A287BA57B0F7C657CA97C07
:100D5C00D97CF67C007DF67CD97CA97C657C0F7CEB
:100D6C00A57B287B997AF679417978789E77B0764D
:100D7C00B1759F747C734672FF70A76F3D6EC26C29
:100D8C00376B9B69EF67326666648B62A060A65E08
:100D9C009E5C875A63583156F153A5514C4FE74C22
:100DAC00764AF9477245DF4243409C3DEC3A333872
:100DBC007135A732D52FFC2C1C2A352749245621F6
:100DCC005F1E631B62185E1557124D0F400C3209E3
:100DDC00220611030000EFFCDEF9CEF6C0F3B3F0EF
:100DEC00A9EDA2EA9EE79DE4A1E1AADEB7DBCBD890
:100DFC00E4D504D32BD059CD8FCACDC714C564C24A
:100E0C00BDBF21BD8EBA07B88AB519B3B4B05BAEFD
:100E1C000FACCFA99DA779A562A35AA1609F759D20
:100E2C009A9BCE9911986596C9943E93C39159900B
:100E3C00018FBA8D848C618B4F8A50896288888728
:100E4C00BF860A866785D8845B84F1839B8357832E
:100E5C0027830A8300830A83278357839B83F18329
:100E6C005B84D88467850A86BF86888762885089A8
:100E7C004F8A618B848CBA8D018F5990C3913E93AC
:100E8C00C99465961198CE999A9B759D609F5AA1AD
:100E9C0062A379A59DA7CFA90FAC5BAEB4B019B373
:100EAC008AB507B88EBA21BDBDBF64C214C5CDC703
:100EBC008FCA59CD2BD004D3E4D5CBD8B7DBAADE5F
:100ECC00A1E19DE49EE7A2EAA9EDB3F0C0F3CEF652
:040EDC00DEF9EFFC50
:040EE00040000000CE
:040000050800010CE2
:00000001FF
