:020000040800F2
:10000000FF7F0020350E00087D0E00087D0E0008E1
:100010007D0E00087D0E00087D0E00080000000027
:100020000000000000000000000000007D0E00083D
:100030007D0E0008000000007D0E00087D0E000807
:100040007D0E00087D0E00087D0E00087D0E000864
:100050007D0E00087D0E00087D0E00087D0E000854
:100060007D0E00087D0E00087D0E00087D0E000844
:100070007D0E00087D0E00087D0E00087D0E000834
:100080007D0E00087D0E00087D0E00087D0E000824
:10009000410600087D0E00087D0E00087D0E000858
:1000A000000000007D0E00087D0E00087D0E000897
:1000B0007D0E00087D0E00087D0E00087D0E0008F4
:1000C0007D0E00087D0E00087D0E00087D0E0008E4
:1000D0007D0E0008E50900087D0E00087D0E000871
:1000E0007D0E00087D0E00087D0E00087D0E0008C4
:1000F0007D0E0008000000007D0E00087D0E000847
:1001000000000000000000007D0E00087D0E0008C9
:100110007D0E00087D0E00087D0E00080000000026
:100120007D0E00080000000000000000000000003C
:0C01300000000000000000005FF808F173
:10013C00940F0008000000200C0000200C00002090
:10014C0064020020214B22495A6A42F080525A62C2
:10015C000A6842F480720A605A6B42F400025A63D5
:10016C005A6B22F400025A635A6B42F480725A633F
:10017C005A6B9105FCD55A6B22F440325A635A6B78
:10018C0042F480325A635A6B42F480025A63CA2298
:10019C00104B5A6253225A62DA6842F08002DA60DB
:1001AC00DA685206FCD519690B4A0A401A611A69B9
:1001BC0042F0FF021A611A6942F4FE021A61DA680F
:1001CC0022F08002DA60FF225A6270470038024047
:1001DC000070004000280040008080FF454B9A686A
:1001EC0022F003029A6040F6FF72996811F00C0F2E
:1001FC0047D0013A92B2002AF7D14FF0FF30704746
:10020C0000203D4B1A6842F004021A601A6842F052
:10021C0002021A601A6842F001021A60354A9368A9
:10022C0023F47D03A8B143F41103344919409160C0
:10023C00136843F08073136040F6FF732D4A116806
:10024C0089010DD4013B9BB2002BF8D16FF0020059
:10025C00704743F40803E8E7003018BF01207047EB
:10026C009368244943F00303936040F6FF738A6854
:10027C0002F00C020C2AEFD0013B9BB2002BF6D102
:10028C00E4E71A6822F480321A601A6822F001023C
:10029C001A601A6822F480221A601A6822F080729E
:1002AC001A601A6822F0C0421A601A6842F0804242
:1002BC001A6068B11A6842F480321A6040F6FF7313
:1002CC000C4A116889039CD4013B9BB2002BF8D1DA
:1002DC00084A136843F00103136040F6FF7311687A
:1002EC0088078DD4013B9BB2002BF8D16FF0010035
:1002FC00704700BF00380240003C02400FC09BFF1B
:10030C00104B9A6822F003029A6040F6FF729968CB
:10031C0011F00C0F04D0013A92B2002AF7D17047B9
:10032C001A6822F480321A601A6822F001021A60EC
:10033C001A6822F480221A601A6822F080721A60FD
:10034C00704700BF003802407047704710F1FF3013
:10035C0000D2704700BFF9E770477047704770478D
:10036C000020704700207047154B5A6A42F4000277
:10037C005A621A6A42F001021A62124A536823F056
:10038C00010353600122104BA3F840200F4A00BF19
:10039C00013AFCD1A3F84020A3F85020A3F84C203C
:1003AC00A3F844204FF4A052A3F840204FF480123D
:1003BC00074B1A60034A536843F0010353607047BC
:1003CC000038024000000140005C0040A0860100A3
:1003DC0000E100E0F0B5414C00F00F074FFA80FC53
:1003EC00BD00002B08BF234605F18045BCF1000F72
:1003FC0005F5B84517DA288820F0C0000005000D77
:10040C0040F4004040F0800028802C88022904F43D
:10041C00106444EA070411D0032935D0002936D1E1
:10042C0044F402440CE02C8824F0F004A404A40C42
:10043C0044F4004444F080042C80E6E744F4004487
:10044C0044F080042C8026483C0104F18044BCF12B
:10045C00000F068804F5C0441CDA2660214C01F01C
:10046C00030144F8273040F63F730129298803EA39
:10047C00010383F400430CBF83F0B00383F0A003AB
:10048C0032442B800280F0BD44F40644D8E744F497
:10049C000444D5E7A660A1893F2A8BBF41F40041F3
:1004AC006FF3CF31A181A181B4F80CC08ABF51097F
:1004BC00C2F3440101F1FF3161F38E2C0A49A4F817
:1004CC000CC041F827302B8823F0F0039B049B0CC5
:1004DC0083F4304383F08003D2E700BF6503000848
:1004EC00000000202402002044020020F0B548F255
:1004FC00800700F00F06B5004A4C05F1804505F564
:10050C00B845002B08BF23462C88022924F0C004D0
:10051C004FEA04544FEA145444EA07042C802C8804
:10052C0024F0F0044FEA84444FEA944447EA040769
:10053C002F802C8804F4106444EA06042FD003297D
:10054C0030D091BB44F40241DFF8E4C041F08001AB
:10055C002980BCF80040310101F1804110F0800F7E
:10056C0001F5C04102EB0407604621D04FF0000CAE
:10057C000C60C1F804C08F60C1F80CC0298881F0F0
:10058C00300121F4405189B22980274904EB420201
:10059C0041F826302549028041F82630F0BD44F45C
:1005AC000141D1E744F40641CEE744F40441CBE7E2
:1005BC008C603F2A0F608F8828D86FF3CF378F80DD
:1005CC008F896FF3CF378F81C2F34407B1F804C022
:1005DC0067F38E2CA1F804C0B1F80CC067F38E2C15
:1005EC00A1F80CC0298821F0F0018904890C81F450
:1005FC00304181F080012980298821F0C001090552
:10060C00090D81F4004181F0B001BDE747F40047CA
:10061C008F808F8947F400478F815709013F07F07E
:10062C001F07D3E7650300082402002044020020C2
:10063C000000002038B5424CB4F844305D052CD590
:10064C00FFF78CFE4FF41C434022A4F840303D4B86
:10065C003D491A8080230022A4F84C3008243B4BDF
:10066C00013C14F0FF0441F8042B43F8042BF7D1A0
:10067C004FF6FF32324B2146A3F844202046344B30
:10068C000822FFF7A7FE334B082221468020FFF7F4
:10069C00A1FE314B1C6000F0FAFA294BB3F8442050
:1006AC00140429D5B3F8445005F00F05AC0004F13F
:1006BC00804404F5B844238818040CD5224B2846F2
:1006CC0053F825309847238823F0F0031B051B0DA6
:1006DC0043F080032380238819060DD51B4B45F06E
:1006EC00800053F825309847238823F0F0031B052E
:1006FC001B0D43F400432380114CB4F844301A050D
:10070C000BD5FFF72BFEB4F8403043F00C03A4F8E4
:10071C0040304FF2FF73A4F84430094AB2F8443029
:10072C00DB040BD5B2F8403023F00C031B041B0C7C
:10073C00A2F840304EF6FF73A2F8443038BD00BF2B
:10074C00005C004000000020440200202402002035
:10075C0073080008BD0700080C000020F0B5002548
:10076C00C40004F1804404F5C0442368561C03F112
:10077C00005303F5405376085B00AFB2BE4211D86C
:10078C004008800000F18040626000F5B8400388AA
:10079C0023F0C0031B051B0D83F4004383F0B0034F
:1007AC000380F0BD31F8157043F825700135E4E78E
:1007BC00F8B5144B144CB3F84C10227901F07F01AE
:1007CC0091421CBF42F08002A3F84C201B8803F01E
:1007DC003003302B14D0256895B1E7882946082FB3
:1007EC003E4628BF082600203246FFF7B7FF072FEA
:1007FC00A7EB0603E38093BF0023AD1925602360AC
:10080C00F8BD00BF005C00400C00002030B5C200F9
:10081C0002F1804202F5C04203465068C0F3090061
:10082C0000B31268441C02F1005202F5405252000F
:10083C006410023902EB840432F8045BA24221F802
:10084C00025FF9D15B089B0003F1804303F5B843C9
:10085C001A8822F0F0029204920C82F4304282F058
:10086C0080021A8030BD73B53F4B404CDD68A3F558
:10087C0080631B88C5F3090513F4006609D094F94D
:10088C000830002B17DA002539490120FFF7BEFF8D
:10089C002582227A02F07F0312063CD54EB373BB3D
:1008AC00607A06280CD0082825D040BB022231499A
:1008BC00FFF754FF1DE0E289238A9A42E9D8E2E768
:1008CC00012201A9019260890DF10202ADF80230FA
:1008DC0000F014F9E389BDF8022080209A4288BF09
:1008EC00ADF80230BDF80230E380019B2360FFF7C6
:1008FC005FFF02B070BD01221F491846D8E70123E3
:10090C00019300230DF1020201A91948ADF8023040
:10091C0000F032F9DEE76BB9627A052A05D16289FB
:10092C002271002211461046C2E7092A02D16289BF
:10093C00A274F6E72A46218A0D4800F02FF950B927
:10094C000E4A138823F0F0039B049B0C83F4304372
:10095C0083F080031380238A1D44E389ADB2AB423C
:10096C002582C6D8DDE700BF006000400C000020E7
:10097C0014000020040F00081E000020005C004042
:10098C0070477047704703784078181AC0B27047A8
:10099C0001784278034691420BD002780244907859
:1009AC001A78C0B20132D2B21A701A78D2B21A7056
:1009BC00704700207047037842789B1ADBB2012BFA
:1009CC0009D043780344997043780133DBB2437008
:1009DC004378DBB24370704710B5104C23689A060D
:1009EC0006D561680E48C9B2BDE81040FFF7E3BFF9
:1009FC0023681B060BD50A4890F8022190F80331A6
:100A0C009A4205D000F58170FFF7C2FF606010BDFF
:100A1C00E36823F08003E360F9E700BF003801408E
:100A2C001F000020F8B50446074F084D4618B44285
:100A3C0000D1F8BD14F8011B3846FFF7BCFFEB687A
:100A4C0043F08003EB60F2E7210100200038014005
:100A5C0070B5074E074D441E14F8011F01B970BD47
:100A6C003046FFF7A8FFEB6843F08003EB60F3E739
:100A7C00210100200038014070B50446084D46188D
:100A8C00B44200D170BD2A786B789B1A13F0FF0F1B
:100A9C00F9D02846FFF77CFF04F8010BF0E700BF04
:100AAC001F000020F8B506460139134FCCB2FF2CBD
:100ABC0035460DD12B7853B1022C83BF0A232B70F2
:100ACC000D23002385BF6B7000232B70AB70F8BD1A
:100ADC003A787B789B1A13F0FF0FF9D03846FFF762
:100AEC0057FF06F8010B0028E4D0631E0D28DBB27B
:100AFC00E0D01C46DBE700BF1F00002000F47F4362
:100B0C00B3F5007F10D003D8B3F5807F07D07047C2
:100B1C00B3F5407F10D0B3F5C06F09D070470F4BC1
:100B2C000B601223138070470D4B0B604323F9E7C6
:100B3C000C4B0B600A23F5E7C0B20328F3D8DFE8AF
:100B4C0000F00207090B084B0B600B681B78E9E7F8
:100B5C00064BF9E7064BF7E7064BF5E7060F0008DF
:100B6C00180F00085B0F0008660F00086A0F0008DA
:100B7C00800F0008900F0008037803F07F03212BEF
:100B8C0008D14378212B05D1034B01200B6007239F
:100B9C0013807047002070470200002010B50378C6
:100BAC0003F07F03212B4DD14378202B4AD10AB976
:100BBC00012036E0244C01202146FFF727FE234A72
:100BCC00136A43F4804313622268214BB3FBF2F3A4
:100BDC00204A93602368B3F5614F0CBF4FF4007249
:100BEC004FF000721C4B9A6163794BB9194BDA6860
:100BFC0022F48062DA60DA6822F48052DA60D7E795
:100C0C006079C0B201280DD1124BDA6842F48052DF
:100C1C00DA60DA6842F48062DA60DA6842F4007210
:100C2C00DA6010BD6379022BC2D10A4BDA6842F448
:100C3C008052DA60DA6842F48062DA60DA6822F4B0
:100C4C000072DBE70020ECE70200002000380240D5
:100C5C000048E80100380140000402406422B0FB67
:100C6C00F2F230320A700A22B0FBF2F310B5B3FB89
:100C7C00F2F404FB123402FB130330338B700D239C
:100C8C000B71002330344C70CA704B7110BD284B63
:100C9C0010B51A68032122F4401242F400121A60B3
:100CAC009A68822042F440129A605A6A22F4706266
:100CBC0042F4E0625A621A6822F4402242F40022A2
:100CCC001A609A6842F440229A605A6A22F0F00242
:100CDC0042F070025A62174A136A43F4804313625B
:100CEC0040F60553A2F58032936042F22C03D36098
:100CFC0000231361536193610F4A1370537082F890
:100D0C00023182F8033120220C4B5A600C4B082222
:100D1C00FFF760FB0B4B402202218120FFF75AFBAF
:100D2C00BDE81040084B402202210120FFF752BBC6
:100D3C0000000240003802401F00002000E100E0EB
:100D4C008D0900088F0900089109000830B5214D64
:100D5C0091B02A786C78A41A14F0FF0411D01E4BB1
:100D6C001B8803F03003302B0BD0402CA8BF402441
:100D7C0068462146FFF780FE224669460220FFF7AF
:100D8C00EDFC2B786A789B1ADBB2C3F1FF034A2B7C
:100D9C000EDD114B1B8803F44053B3F5005F07D1F4
:100DAC0069460320FFF732FDC1B26846FFF73AFEF1
:100DBC004CF2513300E000BF013BFCD1074B5A69A8
:100DCC00D2054CBF4FF080724FF480729A6111B013
:100DDC0030BD00BF1F000020045C00400004024036
:100DEC0070B50D4E0D4D761BB61006D00024013497
:100DFC0055F8043B9847A642F9D1094E094DFFF727
:100E0C00A3FA761BB61006D00024013455F8043B27
:100E1C009847A642F9D170BD940F0008940F0008B2
:100E2C00940F0008940F0008002103E00B4B5B5853
:100E3C00435004310A480B4B42189A42F6D30A4AE3
:100E4C0002E0002342F8043B084B9A42F9D3FFF727
:100E5C007CFAFFF7C5FF00F00DF87047940F0008FF
:100E6C00000000200C0000200C0000206402002078
:100E7C00FEE7000010B50120FFF7B0F91A4AD3695C
:100E8C0043F00F03D361194B1A6822F4402242F449
:100E9C0080221A609A6842F440229A601A6822F4FE
:100EAC00403242F480321A609A6842F440329A60BE
:100EBC000F4A116821F040611160916841F0406166
:100ECC0091601A6822F440621A609A6842F4406297
:100EDC009A60FFF749FA62B6064CFFF737FF2046D7
:100EEC00FFF734FAF9E700BF003802400004024073
:080EFC0000080240A08601007D
:100F040000001201100100000008C016DF050100F6
:100F140001020301090243000201008032090400B6
:100F24000001020200000524001001052401000153
:100F34000424020205240600010705820308006454
:100F440009040100020A0000000705010240000034
:100F5400070581024000000A0600020000000801A3
:100F6400000004030904160343004F004B00500023
:100F74004F00570045004800450055001003550038
:100F840053004200200043004400430004033100A6
:0C0F940040008025000000000800000064
:0400000508000E35AC
:00000001FF
