:020000040800F2
:10000000FF7F0020090A0008510A0008510A000871
:10001000510A0008510A0008510A000800000000B7
:10002000000000000000000000000000510A00086D
:10003000510A000800000000510A0008510A000897
:10004000510A0008510A0008510A0008510A000824
:10005000510A0008510A0008510A0008510A000814
:10006000510A0008510A0008510A0008510A000804
:10007000510A0008510A0008510A0008510A0008F4
:10008000510A0008510A0008510A0008510A0008E4
:10009000CD040008510A0008510A0008510A00085E
:1000A00000000000510A0008510A0008510A000827
:1000B000510A0008510A0008510A0008510A0008B4
:1000C000510A0008510A0008510A0008510A0008A4
:1000D000510A0008510A0008510A0008510A000894
:1000E000510A0008510A0008510A0008510A000884
:1000F000510A000800000000510A0008510A0008D7
:100100000000000000000000510A0008510A000829
:10011000510A0008510A0008510A000800000000B6
:10012000510A00080000000000000000000000006C
:0C01300000000000000000005FF808F173
:10013C00E40B0008000000201C0000201C00002024
:10014C0070000020214B22495A6A42F080525A62B8
:10015C000A6842F480720A605A6B42F400025A63D5
:10016C005A6B22F400025A635A6B42F480725A633F
:10017C005A6B9105FCD55A6B22F440325A635A6B78
:10018C0042F480325A635A6B42F480025A63CA2298
:10019C00104B5A6253225A62DA6842F08002DA60DB
:1001AC00DA685206FCD519690B4A0A401A611A69B9
:1001BC0042F0FF021A611A6942F4FE021A61DA680F
:1001CC0022F08002DA60FF225A6270470038024047
:1001DC000070004000280040008080FF454B9A686A
:1001EC0022F003029A6040F6FF72996811F00C0F2E
:1001FC0047D0013A92B2002AF7D14FF0FF30704746
:10020C0000203D4B1A6842F004021A601A6842F052
:10021C0002021A601A6842F001021A60354A9368A9
:10022C0023F47D03A8B143F41103344919409160C0
:10023C00136843F08073136040F6FF732D4A116806
:10024C0089010DD4013B9BB2002BF8D16FF0020059
:10025C00704743F40803E8E7003018BF01207047EB
:10026C009368244943F00303936040F6FF738A6854
:10027C0002F00C020C2AEFD0013B9BB2002BF6D102
:10028C00E4E71A6822F480321A601A6822F001023C
:10029C001A601A6822F480221A601A6822F080729E
:1002AC001A601A6822F0C0421A601A6842F0804242
:1002BC001A6068B11A6842F480321A6040F6FF7313
:1002CC000C4A116889039CD4013B9BB2002BF8D1DA
:1002DC00084A136843F00103136040F6FF7311687A
:1002EC0088078DD4013B9BB2002BF8D16FF0010035
:1002FC00704700BF00380240003C02400FC09BFF1B
:10030C00104B9A6822F003029A6040F6FF729968CB
:10031C0011F00C0F04D0013A92B2002AF7D17047B9
:10032C001A6822F480321A601A6822F001021A60EC
:10033C001A6822F480221A601A6822F080721A60FD
:10034C00704700BF003802407047704710F1FF3013
:10035C0000D2704700BFF9E7704770477047002024
:10036C00704700207047164B5A6A42F400025A62DA
:10037C001A6A42F001021A62124A536823F001030E
:10038C0053600122104BA3F84020104A00BF013AE1
:10039C00FCD1A3F84020A3F85020A3F84C20A3F8DC
:1003AC0044204FF4A052A3F840204FF48012084B85
:1003BC001A60044A536843F001035360704700BF4E
:1003CC000038024000000140005C0040A0860100A3
:1003DC0000E100E0F0B500F00F06B50005F1804536
:1003EC0005F5B8452C8840B20028B5BF24F0C004F0
:1003FC0024F0F0042405A404B4BF240DA40C44F48C
:10040C00004444F080042C802C88022904F41064ED
:10041C0044EA060405D0032923D029BB44F4024145
:10042C0001E044F4004141F08001224F2980310168
:10043C0001F1804100283C8801F5C041384616DAAC
:10044C000C601D4941F826302B8823F0C0031B0596
:10045C001B0D83F4004383F0A00322442B80028005
:10046C00F0BD44F40641DEE744F40441DBE78C6064
:10047C008F893F2A8BBF47F400476FF3CF378F81AB
:10048C008F81B1F80CC08ABF5709C2F3440707F13A
:10049C00FF3767F38E2CA1F80CC0084941F82630C1
:1004AC002B8823F0F0039B049B0C83F4304383F0E4
:1004BC008003D2E700000020300000205000002014
:1004CC0038B5424CB4F844305D052CD5FFF745FFE8
:1004DC004FF41C434022A4F840303D4B3D491A8058
:1004EC0080230022A4F84C3008243B4B013C14F030
:1004FC00FF0441F8042B43F8042BF7D14FF6FF32DD
:10050C00324B2146A3F844202046344B4022FFF7BF
:10051C0061FF334B402221468020FFF75BFF314BBC
:10052C001C6000F0E3F9294BB3F84420140429D5DE
:10053C00B3F8445005F00F05AC0004F1804404F509
:10054C00B844238818040CD5224B284653F8253080
:10055C009847238823F0F0031B051B0D43F0800301
:10056C002380238819060DD51B4B45F0800053F8CA
:10057C0025309847238823F0F0031B051B0D43F40B
:10058C0000432380114CB4F844301A050BD5FFF707
:10059C00E4FEB4F8403043F00C03A4F840304FF2C2
:1005AC00FF73A4F84430094AB2F84430DB040BD58D
:1005BC00B2F8403023F00C031B041B0CA2F84030A3
:1005CC004EF6FF73A2F8443038BD00BF005C00400B
:1005DC00000000205000002030000020010700081F
:1005EC004F0600081C000020F0B5002500F00F009D
:1005FC00040104F1804404F5C0442368561C03F143
:10060C00005303F5405376085B00EFB2B74205F197
:10061C00010C10D3800000F18040626000F5B840FE
:10062C00038823F0C0031B051B0D83F4004383F0E8
:10063C00B0030380F0BD31F8177043F825706546A0
:10064C00E3E7F8B5134B144CB3F84C10227901F0D6
:10065C007F0191421CBF42F08002A3F84C201B8802
:10066C0003F03003302B14D0256895B1E788294668
:10067C00402F3E4628BF402600203246FFF7B4FFED
:10068C003F2FA7EB0603E38093BF0023AD19256032
:10069C002360F8BD005C00401C00002030B5030155
:1006AC0003F1804303F5C0430246D868C0F3090048
:1006BC00F8B19B68441C03F1005303F540535B00F5
:1006CC006410023903EB840433F8045BA34221F871
:1006DC00025FF9D1930003F1804303F5B8431A8804
:1006EC0022F0F0029204920C82F4304282F08002EA
:1006FC001A8030BD73B53F4B3F4CDD68A3F580636A
:10070C001B88C5F3090513F4006609D094F9083069
:10071C00002B17DA002539490020FFF7BFFF25828F
:10072C00227A02F07F0312063CD54EB373BB607A7B
:10073C0006280CD0082825D040BB02223049FFF7F0
:10074C0053FF1DE0E289238A9A42E9D8E2E70122AD
:10075C0001A9019260890DF10202ADF8023000F09E
:10076C0073F8E389BDF8022080209A4288BFADF867
:10077C000230BDF80230E380019B2360FFF761FF7C
:10078C0002B070BD01221F491846D8E7012301931E
:10079C0000230DF1020201A91848ADF8023000F057
:1007AC0091F8DEE76BB9627A052A05D1628922716C
:1007BC00002211461046C2E7092A02D16289A274AE
:1007CC00F6E72A46218A0D48FFF7CBFD50B90E4AB1
:1007DC00138823F0F0039B049B0C83F4304383F0C9
:1007EC0080031380238A1D44E389ADB2AB4225827A
:1007FC00C6D8DDE7006000401C000020240000206B
:10080C00D80A00082E000020005C004070471FB57D
:10081C00012001A9FFF742FF9DF80520094B12F0BA
:10082C00020F14BF4FF480714FF08071D2074CBF90
:10083C004FF400724FF0007299619A6105B05DF847
:10084C0004FB00BF0004024000F47F43B3F5007FBB
:10085C0010D003D8B3F5807F07D07047B3F5407F35
:10086C0010D0B3F5C06F09D070470F4B0B6012233B
:10087C00138070470D4B0B602923F9E70C4B0B6071
:10088C000A23F5E7C0B20328F3D8DFE800F002072B
:10089C00090B084B0B600B681B78E9E7064BF9E773
:1008AC00064BF7E7064BF5E7DA0A0008EC0A0008F6
:1008BC00150B0008200B0008240B00083A0B00084D
:1008CC00640B00080378812B0CD14378062B09D1DB
:1008DC004388B3F5085F05D1034B01200B607A23E5
:1008EC001380704700207047680B000810B5074B49
:1008FC00402203210120FFF76DFDBDE81040044BA1
:10090C00402203218120FFF765BD00BF1B080008B2
:10091C001908000800B9704700BF0138FAE7214BED
:10092C0010B51A69940421D41A699004FCD51E4C94
:10093C006FF077026378214623F0030343F003033F
:10094C0063701323A270227181200622E3706371FD
:10095C00FFF74AFE1548FFF7DDFF6378062223F008
:10096C000303214681206370FFF73EFE104B1A698A
:10097C00910616D41A699206FCD50A230A4C092250
:10098C00A11D81206372FFF72FFE0848FFF7C2FFFD
:10099C000023A11D63720922BDE810408120FFF7DE
:1009AC0023BE10BD000802400200002040420F0090
:1009BC000004024070B50D4E0D4D761BB61006D0DE
:1009CC000024013455F8043B9847A642F9D1094E4E
:1009DC00094DFFF7B9FC761BB61006D00024013484
:1009EC0055F8043B9847A642F9D170BDE40B0008BA
:1009FC00E40B0008E40B0008E40B0008002103E002
:100A0C000B4B5B58435004310A480B4B42189A422B
:100A1C00F6D30A4A02E0002342F8043B084B9A4200
:100A2C00F9D3FFF792FCFFF7C5FF00F00DF8704704
:100A3C00E40B0008000000201C0000201C0000201B
:100A4C0070000020FEE7000010B50120FFF7C6FB88
:100A5C001A4AD36943F00F03D361194B1A6822F475
:100A6C00402242F480221A609A6842F440229A6032
:100A7C001A6822F4403242F480321A609A6842F4C6
:100A8C0040329A600F4A116821F040611160916800
:100A9C0041F0406191601A6822F440621A609A68D1
:100AAC0042F440629A60FFF75EFC62B6064CFFF7B8
:100ABC0036FF2046FFF74AFCF9E700BF003802403A
:0C0ACC000004024000080240A086010067
:100AD80000001201100100000040C016DF050100EF
:100AE8000102030109022900010100803209040002
:100AF800000203010100092110010001227A000708
:100B0800050103400064070581034000640A0600EC
:100B1800020000004001000004030904160343001A
:100B28004F004B0050004F0057004500480045005B
:100B380055002A0355005300420020004B00650071
:100B4800790062006F0061007200640020002B00D1
:100B580020004D006F00750073006500040331002C
:100B680005010906A1018501050719E029E7150016
:100B780025017501950881027508950181017501A6
:100B8800950505081901290591027503950191013B
:100B98007508950615002565050719002965810062
:100BA800C0050D0902A10185020922A10009420917
:100BB800321500250175019502810275019506819E
:100BC8000105010901A100093009311600002610AC
:0C0BD80027751095028102C0C0C000000B
:100BE400400002000A000A000100000000000000AA
:0C0BF400000100000000000000000000F4
:0400000508000A09DC
:00000001FF
