:020000040800F2
:10000000FF7F00200D0D0008550D0008550D00085C
:10001000550D0008550D0008550D000800000000A2
:10002000000000000000000000000000550D000866
:10003000550D000800000000550D0008550D000882
:10004000550D0008550D0008550D0008550D000808
:10005000550D0008550D0008550D0008550D0008F8
:10006000550D0008550D0008550D0008550D0008E8
:10007000550D0008550D0008550D0008550D0008D8
:10008000550D0008550D0008550D0008550D0008C8
:1000900039060008550D0008550D0008550D0008DB
:1000A00000000000550D0008550D0008550D000812
:1000B000550D0008550D0008290B0008550D0008C6
:1000C000550D0008550D0008550D0008550D000888
:1000D000550D0008550D0008550D0008550D000878
:1000E000550D0008550D0008550D0008550D000868
:1000F000550D000800000000550D0008550D0008C2
:100100000000000000000000550D0008550D00081B
:10011000550D0008550D0008550D000800000000A1
:10012000550D000800000000000000000000000065
:0C01300000000000000000005FF808F173
:10013C00EC10000800000020040000200400002047
:10014C0064000020214B22495A6A42F080525A62C4
:10015C000A6842F480720A605A6B42F400025A63D5
:10016C005A6B22F400025A635A6B42F480725A633F
:10017C005A6B9105FCD55A6B22F440325A635A6B78
:10018C0042F480325A635A6B42F480025A63CA2298
:10019C00104B5A6253225A62DA6842F08002DA60DB
:1001AC00DA685206FCD519690B4A0A401A611A69B9
:1001BC0042F0FF021A611A6942F4FE021A61DA680F
:1001CC0022F08002DA60FF225A6270470038024047
:1001DC000070004000280040008080FF454B9A686A
:1001EC0022F003029A6040F6FF72996811F00C0F2E
:1001FC0047D0013A92B2002AF7D14FF0FF30704746
:10020C0000203D4B1A6842F004021A601A6842F052
:10021C0002021A601A6842F001021A60354A9368A9
:10022C0023F47D03A8B143F41103344919409160C0
:10023C00136843F08073136040F6FF732D4A116806
:10024C0089010DD4013B9BB2002BF8D16FF0020059
:10025C00704743F40803E8E7003018BF01207047EB
:10026C009368244943F00303936040F6FF738A6854
:10027C0002F00C020C2AEFD0013B9BB2002BF6D102
:10028C00E4E71A6822F480321A601A6822F001023C
:10029C001A601A6822F480221A601A6822F080729E
:1002AC001A601A6822F0C0421A601A6842F0804242
:1002BC001A6068B11A6842F480321A6040F6FF7313
:1002CC000C4A116889039CD4013B9BB2002BF8D1DA
:1002DC00084A136843F00103136040F6FF7311687A
:1002EC0088078DD4013B9BB2002BF8D16FF0010035
:1002FC00704700BF00380240003C02400FC09BFF1B
:10030C00104B9A6822F003029A6040F6FF729968CB
:10031C0011F00C0F04D0013A92B2002AF7D17047B9
:10032C001A6822F480321A601A6822F001021A60EC
:10033C001A6822F480221A601A6822F080721A60FD
:10034C00704700BF003802407047704710F1FF3013
:10035C0000D2704700BFF9E7704770477047002024
:10036C00704700207047164B5A6A42F400025A62DA
:10037C001A6A42F001021A62124A536823F001030E
:10038C0053600122104BA3F84020104A00BF013AE1
:10039C00FCD1A3F84020A3F85020A3F84C20A3F8DC
:1003AC0044204FF4A052A3F840204FF48012084B85
:1003BC001A60044A536843F001035360704700BF4E
:1003CC000038024000000140005C0040A0860100A3
:1003DC0000E100E0F0B500F00F074FFA80FCBD0023
:1003EC0005F18045BCF1000F05F5B84517DA2888F2
:1003FC0020F0C0000005000D40F4004040F08000EB
:10040C0028802C88022904F4106444EA070411D0D3
:10041C00032935D0002936D144F402440CE02C8851
:10042C0024F0F004A404A40C44F4004444F080042C
:10043C002C80E6E744F4004444F080042C802548EA
:10044C003C0104F18044BCF1000F068804F5C04463
:10045C001CDA2660204C01F0030144F8273040F6EA
:10046C003F730129298803EA010383F400430CBF7D
:10047C0083F0B00383F0A00332442B800280F0BDE4
:10048C0044F40644D8E744F40444D5E7A660A189B3
:10049C003F2A8BBF41F400416FF3CF31A181A18181
:1004AC00B4F80CC08ABF5109C2F3440101F1FF3109
:1004BC0061F38E2C0949A4F80CC041F827302B8825
:1004CC0023F0F0039B049B0C83F4304383F08003F4
:1004DC00D2E700BF000000202400002044000020D0
:1004EC00F0B548F2800700F00F06B50005F1804525
:1004FC0005F5B8452C88022924F0C0044FEA0454B1
:10050C004FEA145444EA07042C802C8824F0F0049D
:10051C004FEA84444FEA944444EA07042C802C8824
:10052C0004F4106444EA060408D0032938D00029E6
:10053C0039D144F4024141F0800101E044EA070161
:10054C00DFF8E4C02980BCF80040310101F18041A2
:10055C0010F0800F01F5C04102EB0407604625D076
:10056C000C608F60298821F0C0010905090D81F408
:10057C00004181F0A0012980298821F0F001890433
:10058C00890C81F4204181F080012980244904EBFD
:10059C00420241F826302349028041F82630F0BD52
:1005AC0044F40641C7E744F40441C4E78C603F2A95
:1005BC000F608F8828D86FF3CF378F808F896FF3B8
:1005CC00CF378F81C2F34407B1F804C067F38E2C88
:1005DC00A1F804C0B1F80CC067F38E2CA1F80CC0C4
:1005EC00298821F0F0018904890C81F4304181F0D3
:1005FC0080012980298821F0C0010905090D81F4A9
:10060C00004181F0B001C0E747F400478F808F892B
:10061C0047F400478F815709013F07F01F07D3E7C5
:10062C0024000020440000200000002038B5424C7B
:10063C00B4F844305D052CD5FFF78FFE4FF41C4306
:10064C004022A4F840303D4B3D491A8080230022C3
:10065C00A4F84C3008243B4B013C14F0FF0441F847
:10066C00042B43F8042BF7D14FF6FF32324B2146C3
:10067C00A3F844202046344B0822FFF7ABFE334B43
:10068C00082221468020FFF7A5FE314B1C6000F0AC
:10069C005FFA294BB3F84420140429D5B3F844501D
:1006AC0005F00F05AC0004F1804404F5B844238830
:1006BC0018040CD5224B284653F82530984723882C
:1006CC0023F0F0031B051B0D43F0800323802388CC
:1006DC0019060DD51B4B45F0800053F82530984773
:1006EC00238823F0F0031B051B0D43F400432380E8
:1006FC00114CB4F844301A050BD5FFF72EFEB4F8A4
:10070C00403043F00C03A4F840304FF2FF73A4F8D0
:10071C004430094AB2F84430DB040BD5B2F840300F
:10072C0023F00C031B041B0CA2F840304EF6FF7395
:10073C00A2F8443038BD00BF005C0040000000202F
:10074C0044000020240000206B080008B5070008B6
:10075C0004000020F0B50025C40004F1804404F529
:10076C00C0442368561C03F1005303F5405376082C
:10077C005B00AFB2BE4211D84008800000F180404F
:10078C00626000F5B840038823F0C0031B051B0D05
:10079C0083F4004383F0B0030380F0BD31F815708F
:1007AC0043F825700135E4E7F8B5144B144CB3F855
:1007BC004C10227901F07F0191421CBF42F0800263
:1007CC00A3F84C201B8803F03003302B14D0256881
:1007DC0095B1E7882946082F3E4628BF08260020F9
:1007EC003246FFF7B7FF072FA7EB0603E38093BF53
:1007FC000023AD1925602360F8BD00BF005C0040EC
:10080C000400002030B5C20002F1804202F5C04263
:10081C0003465068C0F3090000B31268441C02F18F
:10082C00005202F5405252006410023902EB84046B
:10083C0032F8045BA24221F8025FF9D15B089B00FD
:10084C0003F1804303F5B8431A8822F0F0029204B6
:10085C00920C82F4304282F080021A8030BD73B563
:10086C003F4B404CDD68A3F580631B88C5F309053D
:10087C0013F4006609D094F90830002B17DA002520
:10088C0039490120FFF7BEFF2582227A02F07F034F
:10089C0012063CD54EB373BB607A06280CD00828E0
:1008AC0025D040BB02223149FFF754FF1DE0E289FD
:1008BC00238A9A42E9D8E2E7012201A901926089D0
:1008CC000DF10202ADF8023000F07EF8E389BDF8BC
:1008DC00022080209A4288BFADF80230BDF8023069
:1008EC00E380019B2360FFF75FFF02B070BD012224
:1008FC001F491846D8E70123019300230DF102028A
:10090C0001A91948ADF8023000F09CF8DEE76BB98C
:10091C00627A052A05D1628922710022114610469D
:10092C00C2E7092A02D16289A274F6E72A46218A13
:10093C000D4800F089F850B90E4A138823F0F003E3
:10094C009B049B0C83F4304383F080031380238A35
:10095C001D44E389ADB2AB422582C6D8DDE700BFAA
:10096C0000600040040000200C000020DC0D00089A
:10097C0016000020005C004030B5114B91B0188877
:10098C00694680F04000C0F380100230FFF73AFF58
:10099C004FF000730B4A42F2107193614FF40074E4
:1009AC00002300EBD0704010834201DB11B030BD4E
:1009BC003DF9135001338D42C8BF9461F4E700BF79
:1009CC00045C00400004024000F47F43B3F5007F58
:1009DC0010D003D8B3F5807F07D07047B3F5407FB4
:1009EC0010D0B3F5C06F09D070470F4B0B601223BA
:1009FC00138070470D4B0B60C023F9E70C4B0B6059
:100A0C000A23F5E7C0B20328F3D8DFE800F00207A9
:100A1C00090B084B0B600B681B78E9E7064BF9E7F1
:100A2C00064BF7E7064BF5E7DE0D0008F00D000866
:100A3C00B00E0008BA0E0008BE0E0008D40E000856
:100A4C00E80E00080020704710B50478012C0DD179
:100A5C0043780B2B0AD141888388054AD154002254
:100A6C0011461046FFF776FE204610BD0024FBE72A
:100A7C001800002010B50446ADF5007D4FF400724F
:100A8C000449684600F0C6F83DF914000DF5007DE8
:100A9C0010BD00BFEC0E00082DE9F04300271D4DE2
:100AAC003A46AC88AB884FF47A38202B88BF202488
:100ABC004FF47A59AE68A1B0E4B2FBB29C4214D8A0
:100ACC0002B1AE60144BA4B21888620080F04000F2
:100ADC00C0F3801069460430FFF73CFEAB881C1B4A
:100AEC00A4B2AC8021B0BDE8F08308FB06F0B0FBEB
:100AFC00F9F0C0B2FFF7BEFF731CB3F57A5FA4BF69
:100B0C00A6F579533F3B2DF81700012201371E46FD
:100B1C00D3E700BF18000020085C00406FF0010212
:100B2C00084B1A61084A938810339BB293809388C0
:100B3C00B3F5104F05D34FF48071044B996100232A
:100B4C009380704700080040180000200004024009
:100B5C00012108B50846104B4022FFF7C1FC0F4B92
:100B6C00402201218220FFF7BBFC0D4A4FF0804050
:100B7C00536A0C4943F0040353621F220A4B9A62D6
:100B8C0040F2E732DA621A6842F080021A600122FF
:100B9C00DA6008601A6008BD85090008A50A00081B
:100BAC000038024000E100E000080040054B1B69E2
:100BBC009B0406D44FF08072034B9A614FF0007285
:100BCC009A617047000802400004024070B50D4E57
:100BDC000D4D761BB61006D00024013455F8043B9D
:100BEC009847A642F9D1094E094DFFF7ADFB761B8C
:100BFC00B61006D00024013455F8043B9847A642A1
:100C0C00F9D170BDEC100008EC100008EC100008D5
:100C1C00EC100008844641EA000313F0030349D1A9
:100C2C00403A23D30B6803604B6843608B68836046
:100C3C00CB68C3600B6903614B6943618B6983614A
:100C4C00CB69C3610B6A03624B6A43628B6A836232
:100C5C00CB6AC3620B6B03634B6B43638B6B83631A
:100C6C00CB6BC36340304031403ADBD230320BD3D4
:100C7C000B6803604B6843608B688360CB68C36010
:100C8C0010301031103AF3D20C3205D351F8043B2A
:100C9C0040F8043B043AF9D2043208D0D2071CBF06
:100CAC0011F8013B00F8013B01D30B88038060462F
:100CBC00704700BF082A13D38B07B1D010F0030381
:100CCC00AED0C3F10403D21ADB071CBF11F8013BF1
:100CDC0000F8013BA4D331F8023B20F8023B9FE71C
:100CEC00043AD9D3013A11F8013B00F8013BF9D28F
:100CFC000B7803704B7843708B7883706046704729
:100D0C00002103E00B4B5B58435004310A480B4B5A
:100D1C0042189A42F6D30A4A02E0002342F8043BF6
:100D2C00084B9A42F9D3FFF710FBFFF74FFF00F087
:100D3C000DF87047EC1000080000002004000020A3
:100D4C000400002064000020FEE7000010B5012024
:100D5C00FFF744FA1A4AD36943F00F03D361194BD6
:100D6C001A6822F4402242F480221A609A6842F4F3
:100D7C0040229A601A6822F4403242F480321A609F
:100D8C009A6842F440329A600F4A116821F040612F
:100D9C001160916841F0406191601A6822F44062E0
:100DAC001A609A6842F440629A60FFF7DCFA62B605
:100DBC00064CFFF7FBFE2046FFF7C8FAF9E700BF29
:100DCC00003802400004024000080240A0860100E6
:100DDC0000001201100100000008C016DF05010020
:100DEC00010203010902C000030100803209040062
:100DFC000000010100000A2401000146000201026A
:100E0C000C24020101010001000000000C2402026C
:100E1C000102000100000000092403050103000386
:100E2C000009240306010100040009240603010142
:100E3C00010000092406040201010000090401005C
:100E4C000001020000090401010101020000072455
:100E5C0001060101000B24020101021001803E0079
:100E6C000905820140000100000725010000000077
:100E7C000904020000010200000904020101010240
:100E8C000000072401010101000B240201010210E2
:100E9C0001803E0009050101400001000007250109
:100EAC00000000000A060002000000080100040314
:100EBC000904160343004F004B0050004F0057002D
:100ECC0045004800450055001403550053004200EE
:100EDC00200041007500640069006F0004033100BC
:100EEC000000110322063209400C4D0F57125E15FB
:100EFC006218631B5F1E5621492435271C2AFC2CC3
:100F0C00D52FA73271353338EC3A9C3D4340DF4244
:100F1C007245F947764AE74C4C4FA551F15331567F
:100F2C006358875A9E5CA65EA0608B6266643266CC
:100F3C00EF679B69376BC26C3D6EA76FFF70467293
:100F4C007C739F74B175B0769E7778784179F67919
:100F5C00997A287BA57B0F7C657CA97CD97CF67C57
:100F6C00007DF67CD97CA97C657C0F7CA57B287BDD
:100F7C00997AF679417978789E77B076B1759F74C5
:100F8C007C734672FF70A76F3D6EC26C376B9B69AA
:100F9C00EF67326666648B62A060A65E9E5C875AC1
:100FAC0063583156F153A5514C4FE74C764AF947EB
:100FBC007245DF4243409C3DEC3A33387135A732E1
:100FCC00D52FFC2C1C2A3527492456215F1E631B68
:100FDC0062185E1557124D0F400C32092206110390
:100FEC000000EFFCDEF9CEF6C0F3B3F0A9EDA2EAF7
:100FFC009EE79DE4A1E1AADEB7DBCBD8E4D504D310
:10100C002BD059CD8FCACDC714C564C2BDBF21BD6D
:10101C008EBA07B88AB519B3B4B05BAE0FACCFA912
:10102C009DA779A562A35AA1609F759D9A9BCE99A5
:10103C0011986596C9943E93C3915990018FBA8DBE
:10104C00848C618B4F8A508962888887BF860A8618
:10105C006785D8845B84F1839B83578327830A83BA
:10106C0000830A83278357839B83F1835B84D88413
:10107C0067850A86BF868887628850894F8A618B0C
:10108C00848CBA8D018F5990C3913E93C994659607
:10109C001198CE999A9B759D609F5AA162A379A5D0
:1010AC009DA7CFA90FAC5BAEB4B019B38AB507B886
:1010BC008EBA21BDBDBF64C214C5CDC78FCA59CD70
:1010CC002BD004D3E4D5CBD8B7DBAADEA1E19DE4C9
:1010DC009EE7A2EAA9EDB3F0C0F3CEF6DEF9EFFC81
:0410EC0040000000C0
:0400000508000D0DD5
:00000001FF
