:020000040800F2
:10000000FF7F0020F50A00083D0B00083D0B0008AB
:100010003D0B00083D0B00083D0B000800000000F0
:100020000000000000000000000000003D0B000880
:100030003D0B0008000000003D0B00083D0B0008D0
:100040003D0B00083D0B00083D0B00083D0B000870
:100050003D0B00083D0B00083D0B00083D0B000860
:100060003D0B00083D0B00083D0B00083D0B000850
:100070003D0B00083D0B00083D0B00083D0B000840
:100080003D0B00083D0B00083D0B00083D0B000830
:10009000290600083D0B00083D0B00083D0B000839
:1000A000000000003D0B00083D0B00083D0B000860
:1000B0003D0B00083D0B00083D0B00083D0B000800
:1000C0003D0B00083D0B00083D0B00083D0B0008F0
:1000D0003D0B00083D0B00083D0B00083D0B0008E0
:1000E0003D0B00083D0B00083D0B00083D0B0008D0
:1000F0003D0B0008000000003D0B00083D0B000810
:1001000000000000000000003D0B00083D0B00084F
:100110003D0B00083D0B00083D0B000800000000EF
:100120003D0B00080000000000000000000000007F
:0C01300000000000000000005FF808F173
:10013C00440C0008000000200400002004000020F3
:10014C005C000020214B22495A6A42F080525A62CC
:10015C000A6842F480720A605A6B42F400025A63D5
:10016C005A6B22F400025A635A6B42F480725A633F
:10017C005A6B9105FCD55A6B22F440325A635A6B78
:10018C0042F480325A635A6B42F480025A63CA2298
:10019C00104B5A6253225A62DA6842F08002DA60DB
:1001AC00DA685206FCD519690B4A0A401A611A69B9
:1001BC0042F0FF021A611A6942F4FE021A61DA680F
:1001CC0022F08002DA60FF225A6270470038024047
:1001DC000070004000280040008080FF454B9A686A
:1001EC0022F003029A6040F6FF72996811F00C0F2E
:1001FC0047D0013A92B2002AF7D14FF0FF30704746
:10020C0000203D4B1A6842F004021A601A6842F052
:10021C0002021A601A6842F001021A60354A9368A9
:10022C0023F47D03A8B143F41103344919409160C0
:10023C00136843F08073136040F6FF732D4A116806
:10024C0089010DD4013B9BB2002BF8D16FF0020059
:10025C00704743F40803E8E7003018BF01207047EB
:10026C009368244943F00303936040F6FF738A6854
:10027C0002F00C020C2AEFD0013B9BB2002BF6D102
:10028C00E4E71A6822F480321A601A6822F001023C
:10029C001A601A6822F480221A601A6822F080729E
:1002AC001A601A6822F0C0421A601A6842F0804242
:1002BC001A6068B11A6842F480321A6040F6FF7313
:1002CC000C4A116889039CD4013B9BB2002BF8D1DA
:1002DC00084A136843F00103136040F6FF7311687A
:1002EC0088078DD4013B9BB2002BF8D16FF0010035
:1002FC00704700BF00380240003C02400FC09BFF1B
:10030C00104B9A6822F003029A6040F6FF729968CB
:10031C0011F00C0F04D0013A92B2002AF7D17047B9
:10032C001A6822F480321A601A6822F001021A60EC
:10033C001A6822F480221A601A6822F080721A60FD
:10034C00704700BF003802407047704710F1FF3013
:10035C0000D2704700BFF9E7704770477047002024
:10036C00704700207047164B5A6A42F400025A62DA
:10037C001A6A42F001021A62124A536823F001030E
:10038C0053600122104BA3F84020104A00BF013AE1
:10039C00FCD1A3F84020A3F85020A3F84C20A3F8DC
:1003AC0044204FF4A052A3F840204FF48012084B85
:1003BC001A60044A536843F001035360704700BF4E
:1003CC000038024000000140005C0040A0860100A3
:1003DC0000E100E0F0B500F00F074FFA80FCBD0023
:1003EC0005F18045BCF1000F05F5B84517DA2888F2
:1003FC0020F0C0000005000D40F4004040F08000EB
:10040C0028802C88022904F4106444EA070411D0D3
:10041C00032935D0002936D144F402440CE02C8851
:10042C0024F0F004A404A40C44F4004444F080042C
:10043C002C80E6E744F4004444F080042C802548EA
:10044C003C0104F18044BCF1000F068804F5C04463
:10045C001CDA2660204C01F0030144F8273040F6EA
:10046C003F730129298803EA010383F400430CBF7D
:10047C0083F0B00383F0A00332442B800280F0BDE4
:10048C0044F40644D8E744F40444D5E7A660A189B3
:10049C003F2A8BBF41F400416FF3CF31A181A18181
:1004AC00B4F80CC08ABF5109C2F3440101F1FF3109
:1004BC0061F38E2C0949A4F80CC041F827302B8825
:1004CC0023F0F0039B049B0C83F4304383F08003F4
:1004DC00D2E700BF000000201800002038000020E8
:1004EC00F0B548F2800700F00F06B50005F1804525
:1004FC0005F5B8452C88022924F0C0044FEA0454B1
:10050C004FEA145444EA07042C802C8824F0F0049D
:10051C004FEA84444FEA944447EA04072F802C881E
:10052C0004F4106444EA06042FD0032930D091BBA4
:10053C0044F40241DFF8E0C041F080012980BCF8AE
:10054C000040310101F1804110F0800F01F5C041F4
:10055C0002EB0407604621D04FF0000C0C60C1F890
:10056C0004C08F60C1F80CC0298881F0300121F4DF
:10057C00405189B22980264904EB420241F82630C9
:10058C002449028041F82630F0BD44F40141D1E702
:10059C0044F40641CEE744F40441CBE78C603F2A97
:1005AC000F608F8828D86FF3CF378F808F896FF3C8
:1005BC00CF378F81C2F34407B1F804C067F38E2C98
:1005CC00A1F804C0B1F80CC067F38E2CA1F80CC0D4
:1005DC00298821F0F0018904890C81F4304181F0E3
:1005EC0080012980298821F0C0010905090D81F4B9
:1005FC00004181F0B001BDE747F400478F808F893F
:10060C0047F400478F815709013F07F01F07D3E7D5
:10061C0018000020380000200000002038B5424CA3
:10062C00B4F844305D052CD500F030FA4FF41C437F
:10063C004022A4F840303D4B3D491A8080230022D3
:10064C00A4F84C3008243B4B013C14F0FF0441F857
:10065C00042B43F8042BF7D14FF6FF32324B2146D3
:10066C00A3F844202046344B0822FFF7B3FE334B4B
:10067C00082221468020FFF7ADFE314B1C60FFF7AE
:10068C006BFE294BB3F84420140429D5B3F844501D
:10069C0005F00F05AC0004F1804404F5B844238840
:1006AC0018040CD5224B284653F82530984723883C
:1006BC0023F0F0031B051B0D43F0800323802388DC
:1006CC0019060DD51B4B45F0800053F82530984783
:1006DC00238823F0F0031B051B0D43F400432380F8
:1006EC00114CB4F844301A050BD500F0CFF9B4F81E
:1006FC00403043F00C03A4F840304FF2FF73A4F8E1
:10070C004430094AB2F84430DB040BD5B2F840301F
:10071C0023F00C031B041B0CA2F840304EF6FF73A5
:10072C00A2F8443038BD00BF005C0040000000203F
:10073C0038000020180000205B080008A5070008FE
:10074C0004000020F0B50025C40004F1804404F539
:10075C00C0442368561C03F1005303F5405376083C
:10076C005B00AFB2BE4211D84008800000F180405F
:10077C00626000F5B840038823F0C0031B051B0D15
:10078C0083F4004383F0B0030380F0BD31F815709F
:10079C0043F825700135E4E7F8B5144B144CB3F865
:1007AC004C10227901F07F0191421CBF42F0800273
:1007BC00A3F84C201B8803F03003302B14D0256891
:1007CC0095B1E7882946082F3E4628BF0826002009
:1007DC003246FFF7B7FF072FA7EB0603E38093BF63
:1007EC000023AD1925602360F8BD00BF005C0040FC
:1007FC000400002030B5C20002F1804202F5C04274
:10080C0003465068C0F3090000B31268441C02F19F
:10081C00005202F5405252006410023902EB84047B
:10082C0032F8045BA24221F8025FF9D15B089B000D
:10083C0003F1804303F5B8431A8822F0F0029204C6
:10084C00920C82F4304282F080021A8030BD73B573
:10085C003F4B404CDD68A3F580631B88C5F309054D
:10086C0013F4006609D094F90830002B17DA002530
:10087C0039490120FFF7BEFF2582227A02F07F035F
:10088C0012063CD54EB373BB607A06280CD00828F0
:10089C0025D040BB02223149FFF754FF1DE0E2890D
:1008AC00238A9A42E9D8E2E7012201A901926089E0
:1008BC000DF10202ADF8023000F056F8E389BDF8F4
:1008CC00022080209A4288BFADF80230BDF8023079
:1008DC00E380019B2360FFF75FFF02B070BD012234
:1008EC001F491846D8E70123019300230DF102029A
:1008FC0001A91948ADF8023000F074F8DEE76BB9C5
:10090C00627A052A05D162892271002211461046AD
:10091C00C2E7092A02D16289A274F6E72A46218A23
:10092C000D4800F091F850B90E4A138823F0F003EB
:10093C009B049B0C83F4304383F080031380238A45
:10094C001D44E389ADB2AB422582C6D8DDE700BFBA
:10095C0000600040040000200C000020C40B0008C4
:10096C0016000020005C004000F47F43B3F5007FCC
:10097C0010D003D8B3F5807F07D07047B3F5407F14
:10098C0010D0B3F5C06F09D070470F4B0B6012231A
:10099C00138070470D4B0B601B23F9E70C4B0B605E
:1009AC000A23F5E7C0B20328F3D8DFE800F002070A
:1009BC00090B084B0B600B681B78E9E7064BF9E752
:1009CC00064BF7E7064BF5E7C60B0008D80B0008FB
:1009DC00F30B0008FE0B0008020C0008180C0008B2
:1009EC002A0C000830B50378812B0CD14378062BE8
:1009FC001FD14388B3F5085F1BD10F4B01200B604F
:100A0C001623138030BDA12B13D14078012810D1AF
:100A1C000A4B0B4C1B690B4D83F02003C3F34013A3
:100A2C0023702B78637001332B7002230C601380BE
:100A3C00E8E70020E6E700BF2E0C000800040240A7
:100A4C00580000201700002010B58AB1022A17D1D7
:100A5C000C4C01202146FFF7CDFE22780A4B4AB1FF
:100A6C004FF480729A6162783AB14FF400729A61D5
:100A7C00012010BD4FF08072F4E74FF00072F6E7E2
:100A8C000020F6E758000020000402404FF00072EE
:100A9C00024B9A614FF080729A61704700040240D9
:100AAC0070B50D4E0D4D761BB61006D000240134DA
:100ABC0055F8043B9847A642F9D1094E094DFFF76A
:100ACC0043FC761BB61006D00024013455F8043BC9
:100ADC009847A642F9D170BD440C0008440C00089C
:100AEC00440C0008440C0008002103E00B4B5B583D
:100AFC00435004310A480B4B42189A42F6D30A4A27
:100B0C0002E0002342F8043B084B9A42F9D3FFF76A
:100B1C001CFCFFF7C5FF00F00DF87047440C0008F3
:100B2C000000002004000020040000205C000020D5
:100B3C00FEE7000010B50120FFF750FB1A4AD369FD
:100B4C0043F00F03D361194B1A6822F4402242F48C
:100B5C0080221A609A6842F440229A601A6822F441
:100B6C00403242F480321A609A6842F440329A6001
:100B7C000F4A116821F040611160916841F04061A9
:100B8C0091601A6822F440621A609A6842F44062DA
:100B9C009A60FFF7E8FB62B6064CFFF7DFFB2046D6
:100BAC00FFF7D4FBF9E700BF003802400004024015
:080BBC0000080240A0860100C0
:100BC40000001201100100000008C016DF0501003A
:100BD4000102030109021B00010100803209040023
:100BE4000000030000000921010100012216000A8F
:100BF40006000200000008010000040309041603B3
:100C040043004F004B0050004F0057004500480080
:100C140045005500120355005300420020007400A3
:100C2400650073007400040331000600FF0901A18C
:100C340001150026FF00750895020900B20201C0E3
:040C4400400000006C
:0400000508000AF5F0
:00000001FF
