:020000040800F2
:1000000000500020AD090008F1090008F1090008BE
:10001000F1090008F1090008F109000800000000DA
:10002000000000000000000000000000F1090008CE
:10003000F109000800000000F1090008F1090008BA
:10004000F1090008F1090008F1090008F1090008A8
:10005000F1090008F1090008F1090008F109000898
:10006000F1090008F1090008F1090008F109000888
:10007000F1090008F1090008F1090008F109000878
:10008000F1090008F1090008F1090008F109000868
:100090007D040008F1090008F1090008F1090008D1
:1000A000F1090008F1090008F1090008F109000848
:1000B000F1090008F1090008F1090008F109000838
:1000C000F1090008F1090008F1090008F109000828
:1000D000F1090008F1090008F1090008F109000818
:1000E000F1090008F1090008F1090008000000000A
:1000F0000000000000000000000000000000000000
:0C01000000000000000000005FF808F1A3
:10010C00A40A0008000000200C0000200C000020B5
:10011C0064000020274B1A6822F480321A601A6897
:10012C0022F480221A601A6842F480321A6040F677
:10013C00FF721968880316D4013AFAD1012070476E
:10014C00002070475A6822F0030242F002025A6003
:10015C0040F6FF72596801F00C010829F0D0013A01
:10016C00F8D103207047144A116821F01001116076
:10017C00116841F010011160116821F00701116044
:10018C00116841F00401116059680C4A0A4042F4AC
:10019C00E81242F480625A601A6842F080721A6067
:1001AC0040F6FF7219688901CCD4013AFAD10220C9
:1001BC00704700BF00100240002002400FC0C2FF79
:1001CC007047704710F1FF3000D2704700BFF9E75D
:1001DC007047704770470020704700207047154AE1
:1001EC001549D36943F40003D3614B68012223F40E
:1001FC00706343F440734B604FF080630B610F4BA3
:10020C00A3F840200E4A00BF013AFCD1A3F84020CD
:10021C00A3F85020A3F84C20A3F844204FF4A0528C
:10022C00A3F840204FF48012064B1A604FF4806301
:10023C000B6170470010024000080140005C004058
:10024C00A086010000E100E0F0B500F00F06B5005B
:10025C0005F1804505F5B8452C8840B20028B5BF9E
:10026C0024F0C00424F0F0042405A404B4BF240D2D
:10027C00A40C44F4004444F080042C802C88022903
:10028C0004F4106444EA060405D0032923D029BBE6
:10029C0044F4024101E044F4004141F08001224F5A
:1002AC002980310101F1804100283C8801F5C041D1
:1002BC00384616DA0C601D4941F826302B8823F09D
:1002CC00C0031B051B0D83F4004383F0A0032244E1
:1002DC002B800280F0BD44F40641DEE744F4044177
:1002EC00DBE78C608F893F2A8BBF47F400476FF3A5
:1002FC00CF378F818F81B1F80CC08ABF5709C2F3F9
:10030C00440707F1FF3767F38E2CA1F80CC008499E
:10031C0041F826302B8823F0F0039B049B0C83F4CC
:10032C00304383F08003D2E700000020240000203B
:10033C0044000020F0B548F2800700F00F06B5002D
:10034C0005F1804505F5B8452C88022924F0C00438
:10035C004FEA04544FEA145444EA07042C802C88C6
:10036C0024F0F0044FEA84444FEA944447EA04072B
:10037C002F802C8804F4106444EA06042FD003293F
:10038C0030D091BB44F40241DFF8E0C041F0800171
:10039C002980BCF80040310101F1804110F0800F40
:1003AC0001F5C04102EB0407604621D04FF0000C70
:1003BC000C60C1F804C08F60C1F80CC0298881F0B2
:1003CC00300121F4405189B22980264904EB4202C4
:1003DC0041F826302449028041F82630F0BD44F41F
:1003EC000141D1E744F40641CEE744F40441CBE7A4
:1003FC008C603F2A0F608F8828D86FF3CF378F809F
:10040C008F896FF3CF378F81C2F34407B1F804C0E3
:10041C0067F38E2CA1F804C0B1F80CC067F38E2CD6
:10042C00A1F80CC0298821F0F0018904890C81F411
:10043C00304181F080012980298821F0C001090513
:10044C00090D81F4004181F0B001BDE747F400478C
:10045C008F808F8947F400478F815709013F07F040
:10046C001F07D3E7240000204400002000000020D8
:10047C0038B5424CB4F844305D052CD5FFF7A9FED5
:10048C004FF41C434022A4F840303D4B3D491A80A8
:10049C0080230022A4F84C3008243B4B013C14F080
:1004AC00FF0441F8042B43F8042BF7D14FF6FF322D
:1004BC00324B2146A3F844202046344B0822FFF748
:1004CC00C3FE334B082221468020FFF7BDFE314B83
:1004DC001C6000F03DFA294BB3F84420140429D5D4
:1004EC00B3F8445005F00F05AC0004F1804404F55A
:1004FC00B844238818040CD5224B284653F82530D1
:10050C009847238823F0F0031B051B0D43F0800351
:10051C002380238819060DD51B4B45F0800053F81A
:10052C0025309847238823F0F0031B051B0D43F45B
:10053C0000432380114CB4F844301A050BD5FFF757
:10054C0048FEB4F8403043F00C03A4F840304FF2AE
:10055C00FF73A4F84430094AB2F84430DB040BD5DD
:10056C00B2F8403023F00C031B041B0CA2F84030F3
:10057C004EF6FF73A2F8443038BD00BF005C00405B
:10058C00000000204400002024000020AF060008DA
:10059C00F90500080C000020F0B50025C40004F19A
:1005AC00804404F5C0442368561C03F1005303F542
:1005BC00405376085B00AFB2BE4211D840088000B1
:1005CC0000F18040626000F5B840038823F0C0035E
:1005DC001B051B0D83F4004383F0B0030380F0BDB7
:1005EC0031F8157043F825700135E4E7F8B5144B74
:1005FC00144CB3F84C10227901F07F0191421CBFCE
:10060C0042F08002A3F84C201B8803F03003302BFF
:10061C0014D0256895B1E7882946082F3E4628BF97
:10062C00082600203246FFF7B7FF072FA7EB06037B
:10063C00E38093BF0023AD1925602360F8BD00BF94
:10064C00005C00400C00002030B5C20002F180427A
:10065C0002F5C04203465068C0F3090000B31268AB
:10066C00441C02F1005202F540525200641002394F
:10067C0002EB840432F8045BA24221F8025FF9D148
:10068C005B089B0003F1804303F5B8431A8822F002
:10069C00F0029204920C82F4304282F080021A80B2
:1006AC0030BD73B53F4B404CDD68A3F580631B88B0
:1006BC00C5F3090513F4006609D094F90830002B32
:1006CC0017DA002539490120FFF7BEFF2582227A6F
:1006DC0002F07F0312063CD54EB373BB607A06283A
:1006EC000CD0082825D040BB02223149FFF754FF1B
:1006FC001DE0E289238A9A42E9D8E2E7012201A9A6
:10070C00019260890DF10202ADF8023000F072F82E
:10071C00E389BDF8022080209A4288BFADF80230F0
:10072C00BDF80230E380019B2360FFF75FFF02B04E
:10073C0070BD01221F491846D8E7012301930023FD
:10074C000DF1020201A91948ADF8023000F090F841
:10075C00DEE76BB9627A052A05D162892271002223
:10076C0011461046C2E7092A02D16289A274F6E743
:10077C002A46218A0D4800F08DF850B90E4A13888C
:10078C0023F0F0039B049B0C83F4304383F0800331
:10079C001380238A1D44E389ADB2AB422582C6D8AF
:1007AC00DDE700BF006000400C00002014000020BA
:1007BC00140A00081E000020005C0040704710B5B1
:1007CC000B4C90B02088694680F48040C0F3803098
:1007DC000430FFF739FF238823F0F0031B051B0DB2
:1007EC0043F4004343F0C003238010B010BD00BF9E
:1007FC00085C004000F47F43B3F5007F10D003D8B1
:10080C00B3F5807F07D07047B3F5407F10D0B3F5B8
:10081C00C06F09D070470F4B0B60122313807047C9
:10082C000D4B0B604323F9E70C4B0B600A23F5E7E8
:10083C00C0B20328F3D8DFE800F00207090B084B1D
:10084C000B600B681B78E9E7064BF9E7064BF7E7FB
:10085C00064BF5E7160A0008280A00086B0A000880
:10086C00760A00087A0A0008900A0008A00A000814
:10087C00037803F07F03212B08D14378212B05D17A
:10088C00034B01200B600723138070470020704737
:10089C000200002008B5037803F07F03212B09D157
:1008AC004378202B06D11AB103490120FFF7CCFE67
:1008BC00012000E0002008BD020000206422B0FBF3
:1008CC00F2F230320A700A22B0FBF2F310B5B3FB2D
:1008DC00F2F404FB123402FB130330338B700D2340
:1008EC000B71002330344C70CA704B7110BD13B5B2
:1008FC000E4C69462078FFF7E1FF0D4A69461088D7
:10090C001388C0F3803023F0F0031B051B0D43F458
:10091C00404343F08003138002300522FFF73CFE76
:10092C00012023780133237002B010BD1F0000207A
:10093C00045C004010B5054C637813B10023637060
:10094C0010BDFFF7D4FF63780133F8E71F000020D8
:10095C0010B50A4B082203218320FFF775FC084BC6
:10096C00402202218120FFF7E5FCBDE81040022166
:10097C00044B40220846FFF7DDBC00BFC907000846
:10098C0041090008CB07000808B5FFF7B0FF034B7F
:10099C00013B00D108BD00BFFAE700BF414B4C0042
:1009AC00002103E00A4B5B584350043109480A4BC1
:1009BC0042189A42F6D3094A02E0002342F8043B5B
:1009CC00074B9A42F9D3FFF7FCFB00F00DF8704788
:1009DC00A40A0008000000200C0000200C000020DD
:1009EC0064000020FEE7000008B5FFF793FB054A02
:1009FC00936943F00C039361FFF7F1FB62B6FFF7C9
:100A0C00C3FFFCE7001002400000120110010000BF
:100A1C000008C016DF0501000102030109024300B2
:100A2C0002010080320904000001020200000524CA
:100A3C000010010524010001042402020524060013
:100A4C00010705830308006409040100020A000081
:100A5C000007050202400000070581024000000A61
:100A6C00060002000000080100000403090416033C
:100A7C0043004F004B0050004F005700450048000A
:100A8C004500550010035500530042002000430060
:080A9C00440043000403310093
:0C0AA40040008025000000000800000059
:040000050800010CE2
:00000001FF
