:020000040800F2
:1000000000500020090C00084D0C00084D0C0008A1
:100010004D0C00084D0C00084D0C000800000000BD
:100020000000000000000000000000004D0C00086F
:100030004D0C0008000000004D0C00084D0C00089D
:100040004D0C00084D0C00084D0C00084D0C00082C
:100050004D0C00084D0C00084D0C00084D0C00081C
:100060004D0C00084D0C00084D0C00084D0C00080C
:100070004D0C00084D0C00084D0C00084D0C0008FC
:100080004D0C00084D0C00084D0C00084D0C0008EC
:10009000B90400084D0C00084D0C00084D0C000878
:1000A0004D0C00084D0C00084D0C00084D0C0008CC
:1000B0004D0C00084D0C00084D0C00084D0C0008BC
:1000C0004D0C00084D0C00084D0C00084D0C0008AC
:1000D0004D0C0008570800084D0C00084D0C000896
:1000E0004D0C00084D0C00084D0C000800000000ED
:1000F0000000000000000000000000000000000000
:0C01000000000000000000005FF808F1A3
:10010C002C0D0008000000200C0000200C0000202A
:10011C0064020020274B1A6822F480321A601A6895
:10012C0022F480221A601A6842F480321A6040F677
:10013C00FF721968880316D4013AFAD1012070476E
:10014C00002070475A6822F0030242F002025A6003
:10015C0040F6FF72596801F00C010829F0D0013A01
:10016C00F8D103207047144A116821F01001116076
:10017C00116841F010011160116821F00701116044
:10018C00116841F00401116059680C4A0A4042F4AC
:10019C00E81242F480625A601A6842F080721A6067
:1001AC0040F6FF7219688901CCD4013AFAD10220C9
:1001BC00704700BF00100240002002400FC0C2FF79
:1001CC007047704710F1FF3000D2704700BFF9E75D
:1001DC007047704770477047002070470020704789
:1001EC00154AD36943F40003D361A2F58232136834
:1001FC0023F4706343F4407313604FF48023136152
:10020C0001220E4BA3F840200D4A00BF013AFCD14D
:10021C00A3F84020A3F85020A3F84C20A3F84420C6
:10022C004FF4A052A3F840204FF48012054B1A60F3
:10023C000422054B1A61704700100240005C00401C
:10024C00A086010000E100E0000C0140F0B5414C3B
:10025C0000F00F074FFA80FCBD00002B08BF2346AF
:10026C0005F18045BCF1000F05F5B84517DA288873
:10027C0020F0C0000005000D40F4004040F080006C
:10028C0028802C88022904F4106444EA070411D055
:10029C00032935D0002936D144F402440CE02C88D3
:1002AC0024F0F004A404A40C44F4004444F08004AE
:1002BC002C80E6E744F4004444F080042C8026486B
:1002CC003C0104F18044BCF1000F068804F5C044E5
:1002DC001CDA2660214C01F0030144F8273040F66B
:1002EC003F730129298803EA010383F400430CBFFF
:1002FC0083F0B00383F0A00332442B800280F0BD66
:10030C0044F40644D8E744F40444D5E7A660A18934
:10031C003F2A8BBF41F400416FF3CF31A181A18102
:10032C00B4F80CC08ABF5109C2F3440101F1FF318A
:10033C0061F38E2C0A49A4F80CC041F827302B88A5
:10034C0023F0F0039B049B0C83F4304383F0800375
:10035C00D2E700BFDD0100080000002024020020CD
:10036C0044020020F0B548F2800700F00F06B500FB
:10037C004A4C05F1804505F5B845002B08BF2346CE
:10038C002C88022924F0C0044FEA04544FEA145478
:10039C0044EA07042C802C8824F0F0044FEA8444AF
:1003AC004FEA944447EA04072F802C8804F4106425
:1003BC0044EA06042FD0032930D091BB44F4024107
:1003CC00DFF8E4C041F080012980BCF80040310125
:1003DC0001F1804110F0800F01F5C04102EB0407E0
:1003EC00604621D04FF0000C0C60C1F804C08F6047
:1003FC00C1F80CC0298881F0300121F4405189B238
:10040C002980274904EB420241F826302549028015
:10041C0041F82630F0BD44F40141D1E744F40641E3
:10042C00CEE744F40441CBE78C603F2A0F608F8801
:10043C0028D86FF3CF378F808F896FF3CF378F81A9
:10044C00C2F34407B1F804C067F38E2CA1F804C0C2
:10045C00B1F80CC067F38E2CA1F80CC0298821F0E0
:10046C00F0018904890C81F4304181F080012980EC
:10047C00298821F0C0010905090D81F4004181F0A2
:10048C00B001BDE747F400478F808F8947F40047E0
:10049C008F815709013F07F01F07D3E7DD010008E3
:1004AC0024020020440200200000002038B5424CF9
:1004BC00B4F844305D052CD5FFF78CFE4FF41C438B
:1004CC004022A4F840303D4B3D491A808023002245
:1004DC00A4F84C3008243B4B013C14F0FF0441F8C9
:1004EC00042B43F8042BF7D14FF6FF32324B214645
:1004FC00A3F844202046344B0822FFF7A7FE334BC9
:10050C00082221468020FFF7A1FE314B1C6000F031
:10051C00F1FA294BB3F84420140429D5B3F844500C
:10052C0005F00F05AC0004F1804404F5B8442388B1
:10053C0018040CD5224B284653F8253098472388AD
:10054C0023F0F0031B051B0D43F08003238023884D
:10055C0019060DD51B4B45F0800053F825309847F4
:10056C00238823F0F0031B051B0D43F40043238069
:10057C00114CB4F844301A050BD5FFF72BFEB4F828
:10058C00403043F00C03A4F840304FF2FF73A4F852
:10059C004430094AB2F84430DB040BD5B2F8403091
:1005AC0023F00C031B041B0CA2F840304EF6FF7317
:1005BC00A2F8443038BD00BF005C004000000020B1
:1005CC004402002024020020EB0600083506000837
:1005DC000C000020F0B50025C40004F1804404F5A3
:1005EC00C0442368561C03F1005303F540537608AE
:1005FC005B00AFB2BE4211D84008800000F18040D1
:10060C00626000F5B840038823F0C0031B051B0D86
:10061C0083F4004383F0B0030380F0BD31F8157010
:10062C0043F825700135E4E7F8B5144B144CB3F8D6
:10063C004C10227901F07F0191421CBF42F08002E4
:10064C00A3F84C201B8803F03003302B14D0256802
:10065C0095B1E7882946082F3E4628BF082600207A
:10066C003246FFF7B7FF072FA7EB0603E38093BFD4
:10067C000023AD1925602360F8BD00BF005C00406D
:10068C000C00002030B5C20002F1804202F5C042DD
:10069C0003465068C0F3090000B31268441C02F111
:1006AC00005202F5405252006410023902EB8404ED
:1006BC0032F8045BA24221F8025FF9D15B089B007F
:1006CC0003F1804303F5B8431A8822F0F002920438
:1006DC00920C82F4304282F080021A8030BD73B5E5
:1006EC003F4B404CDD68A3F580631B88C5F30905BF
:1006FC0013F4006609D094F90830002B17DA0025A2
:10070C0039490120FFF7BEFF2582227A02F07F03D0
:10071C0012063CD54EB373BB607A06280CD0082861
:10072C0025D040BB02223149FFF754FF1DE0E2897E
:10073C00238A9A42E9D8E2E7012201A90192608951
:10074C000DF10202ADF8023000F010F9E389BDF8AA
:10075C00022080209A4288BFADF80230BDF80230EA
:10076C00E380019B2360FFF75FFF02B070BD0122A5
:10077C001F491846D8E70123019300230DF102020B
:10078C0001A91948ADF8023000F02EF9DEE76BB97B
:10079C00627A052A05D1628922710022114610461F
:1007AC00C2E7092A02D16289A274F6E72A46218A95
:1007BC000D4800F02BF950B90E4A138823F0F003C2
:1007CC009B049B0C83F4304383F080031380238AB7
:1007DC001D44E389ADB2AB422582C6D8DDE700BF2C
:1007EC00006000400C000020140000209C0C00084D
:1007FC001E000020005C004003784078181AC0B23C
:10080C00704701784278034691420BD0027802443B
:10081C0090781A78C0B20132D2B21A701A78D2B269
:10082C001A70704700207047037842789B1ADBB22D
:10083C00012B09D043780344997043780133DBB220
:10084C0043704378DBB24370704710B50F4C23688C
:10085C009A0606D561680E48C9B2BDE81040FFF78C
:10086C00E3BF23681B060BD5094890F8022190F8CA
:10087C0003319A4205D000F58170FFF7C2FF60602A
:10088C0010BDE36823F08003E360F9E70038014012
:10089C001F000020F8B50446074F084D4618B44217
:1008AC0000D1F8BD14F8011B3846FFF7BDFFEB680B
:1008BC0043F08003EB60F2E7210100200038014097
:1008CC0070B5074E074D441E14F8011F01B970BDD9
:1008DC003046FFF7A9FFEB6843F08003EB60F3E7CA
:1008EC00210100200038014070B50446084D46181F
:1008FC00B44200D170BD2A786B789B1A13F0FF0FAD
:10090C00F9D02846FFF77DFF04F8010BF0E700BF94
:10091C001F000020F8B506460139134FCCB2FF2C4E
:10092C0035460DD12B7853B1022C83BF0A232B7083
:10093C000D23002385BF6B7000232B70AB70F8BDAB
:10094C003A787B789B1A13F0FF0FF9D03846FFF7F3
:10095C0058FF06F8010B0028E4D0631E0D28DBB20B
:10096C00E0D01C46DBE700BF1F00002000F47F43F3
:10097C00B3F5007F10D003D8B3F5807F07D0704754
:10098C00B3F5407F10D0B3F5C06F09D070470F4B53
:10099C000B601223138070470D4B0B604323F9E758
:1009AC000C4B0B600A23F5E7C0B20328F3D8DFE841
:1009BC0000F00207090B084B0B600B681B78E9E78A
:1009CC00064BF9E7064BF7E7064BF5E79E0C0008DC
:1009DC00B00C0008F30C0008FE0C0008020D000817
:1009EC00180D0008280D0008037803F07F03212B55
:1009FC0008D14378212B05D1034B01200B60072331
:100A0C0013807047002070470200002010B5037857
:100A1C0003F07F03212B57D14378202B44D10AB903
:100A2C00012010BD2B4C01202146FFF72BFE226824
:100A3C00294BB3FBF2F3294A93602368B3F5614F5A
:100A4C000CBF40224FF48002254B1A6163794BB9DD
:100A5C00224BDA6822F48062DA60DA6822F480527F
:100A6C00DA60DDE76079C0B201280DD11B4BDA6882
:100A7C0042F48052DA60DA6842F48062DA60DA6852
:100A8C0042F40072DA60CCE76379022BC8D1134BC5
:100A9C00DA6842F48052DA60DA6842F48062DA6032
:100AAC00DA6822F40072DBE7222B0DD140880C4B64
:100ABC0010F0010F14BF40224FF4800210F002001E
:100ACC001A6103D080221A610020AAE74FF40002B9
:100ADC001A61A6E70200002000A24A040038014077
:100AEC00000C01400122024B83F80422704700BF26
:100AFC001F000020204A70B55368002423F4706353
:100B0C0043F4806353605368202523F0F00343F0D3
:100B1C00B0035360194B03219A69822042F0010201
:100B2C009A619A6942F480429A6140F27122A3F56B
:100B3C0058439A6042F22C02DA601C615C619C6141
:100B4C000F4B08221C705C7083F8024183F8034140
:100B5C000C4B5D602346FFF779FB23462A460221A6
:100B6C008120FFF773FB23462A46BDE87040022123
:100B7C000120FFF76BBB00BF0008014000100240D2
:100B8C001F00002000E100E030B51A4D89B02A7832
:100B9C006C78A41A14F0FF0411D0174B1B8803F0C7
:100BAC003003302B0BD0202CA8BF202468462146C4
:100BBC00FFF79AFE224669460220FFF70BFD95F8D7
:100BCC00023195F803219B1ADBB2C3F1FF032A2BE8
:100BDC000EDD094B1B8803F44053B3F5005F07D1BE
:100BEC0069460320FFF74EFDC1B26846FFF752FE7F
:100BFC0009B030BD1F000020045C0040002103E060
:100C0C000A4B5B584350043109480A4B42189A422C
:100C1C00F6D3094A02E0002342F8043B074B9A4200
:100C2C00F9D3FFF7CEFA00F00DF870472C0D000841
:100C3C00000000200C0000200C00002064020020AA
:100C4C00FEE7000008B5FFF765FA0F4A936943F019
:100C5C000C0393610D4B1A6822F0704242F0405223
:100C6C001A601A6822F0706242F040721A601A68B8
:100C7C0022F4700242F440121A60FFF7B1FA62B625
:100C8C00FFF782FFFCE700BF00100240000C0140A0
:100C9C0000001201100100000008C016DF05010061
:100CAC000102030109024300020100803209040021
:100CBC0000010202000005240010010524010001BE
:100CCC0004240202052406000107058203080064BF
:100CDC0009040100020A00000007050102200000BF
:100CEC00070581022000000A06000200000008012E
:100CFC00000004030904160343004F004B0050008E
:100D0C004F005700450048004500550010035500A2
:100D1C005300420020004300440043000403310010
:0C0D2C00400080250000000008000000CE
:040000050800010CE2
:00000001FF
