:020000040800F2
:1000000000500020FD0800084109000841090008CF
:1000100041090008410900084109000800000000EA
:10002000000000000000000000000000410900087E
:1000300041090008000000004109000841090008CA
:100040004109000841090008410900084109000868
:100050004109000841090008410900084109000858
:100060004109000841090008410900084109000848
:100070004109000841090008410900084109000838
:100080004109000841090008410900084109000828
:100090007D040008410900084109000841090008E1
:1000A0004109000841090008410900084109000808
:1000B00041090008410900084109000841090008F8
:1000C00041090008410900084109000841090008E8
:1000D00041090008410900084109000841090008D8
:1000E000410900084109000841090008000000001A
:1000F0000000000000000000000000000000000000
:0C01000000000000000000005FF808F1A3
:10010C00400A000800000020040000200400002029
:10011C005C000020274B1A6822F480321A601A689F
:10012C0022F480221A601A6842F480321A6040F677
:10013C00FF721968880316D4013AFAD1012070476E
:10014C00002070475A6822F0030242F002025A6003
:10015C0040F6FF72596801F00C010829F0D0013A01
:10016C00F8D103207047144A116821F01001116076
:10017C00116841F010011160116821F00701116044
:10018C00116841F00401116059680C4A0A4042F4AC
:10019C00E81242F480625A601A6842F080721A6067
:1001AC0040F6FF7219688901CCD4013AFAD10220C9
:1001BC00704700BF00100240002002400FC0C2FF79
:1001CC007047704710F1FF3000D2704700BFF9E75D
:1001DC007047704770470020704700207047154AE1
:1001EC001549D36943F40003D3614B68012223F40E
:1001FC00706343F440734B604FF080630B610F4BA3
:10020C00A3F840200E4A00BF013AFCD1A3F84020CD
:10021C00A3F85020A3F84C20A3F844204FF4A0528C
:10022C00A3F840204FF48012064B1A604FF4806301
:10023C000B6170470010024000080140005C004058
:10024C00A086010000E100E0F0B500F00F06B5005B
:10025C0005F1804505F5B8452C8840B20028B5BF9E
:10026C0024F0C00424F0F0042405A404B4BF240D2D
:10027C00A40C44F4004444F080042C802C88022903
:10028C0004F4106444EA060405D0032923D029BBE6
:10029C0044F4024101E044F4004141F08001224F5A
:1002AC002980310101F1804100283C8801F5C041D1
:1002BC00384616DA0C601D4941F826302B8823F09D
:1002CC00C0031B051B0D83F4004383F0A0032244E1
:1002DC002B800280F0BD44F40641DEE744F4044177
:1002EC00DBE78C608F893F2A8BBF47F400476FF3A5
:1002FC00CF378F818F81B1F80CC08ABF5709C2F3F9
:10030C00440707F1FF3767F38E2CA1F80CC008499E
:10031C0041F826302B8823F0F0039B049B0C83F4CC
:10032C00304383F08003D2E7000000201800002047
:10033C0038000020F0B548F2800700F00F06B50039
:10034C0005F1804505F5B8452C88022924F0C00438
:10035C004FEA04544FEA145444EA07042C802C88C6
:10036C0024F0F0044FEA84444FEA944447EA04072B
:10037C002F802C8804F4106444EA06042FD003293F
:10038C0030D091BB44F40241DFF8E0C041F0800171
:10039C002980BCF80040310101F1804110F0800F40
:1003AC0001F5C04102EB0407604621D04FF0000C70
:1003BC000C60C1F804C08F60C1F80CC0298881F0B2
:1003CC00300121F4405189B22980264904EB4202C4
:1003DC0041F826302449028041F82630F0BD44F41F
:1003EC000141D1E744F40641CEE744F40441CBE7A4
:1003FC008C603F2A0F608F8828D86FF3CF378F809F
:10040C008F896FF3CF378F81C2F34407B1F804C0E3
:10041C0067F38E2CA1F804C0B1F80CC067F38E2CD6
:10042C00A1F80CC0298821F0F0018904890C81F411
:10043C00304181F080012980298821F0C001090513
:10044C00090D81F4004181F0B001BDE747F400478C
:10045C008F808F8947F400478F815709013F07F040
:10046C001F07D3E7180000203800002000000020F0
:10047C0038B5424CB4F844305D052CD500F02EFA5A
:10048C004FF41C434022A4F840303D4B3D491A80A8
:10049C0080230022A4F84C3008243B4B013C14F080
:1004AC00FF0441F8042B43F8042BF7D14FF6FF322D
:1004BC00324B2146A3F844202046344B0822FFF748
:1004CC00C3FE334B082221468020FFF7BDFE314B83
:1004DC001C60FFF77DFE294BB3F84420140429D58A
:1004EC00B3F8445005F00F05AC0004F1804404F55A
:1004FC00B844238818040CD5224B284653F82530D1
:10050C009847238823F0F0031B051B0D43F0800351
:10051C002380238819060DD51B4B45F0800053F81A
:10052C0025309847238823F0F0031B051B0D43F45B
:10053C0000432380114CB4F844301A050BD500F05D
:10054C00CDF9B4F8403043F00C03A4F840304FF22E
:10055C00FF73A4F84430094AB2F84430DB040BD5DD
:10056C00B2F8403023F00C031B041B0CA2F84030F3
:10057C004EF6FF73A2F8443038BD00BF005C00405B
:10058C00000000203800002018000020AF060008F2
:10059C00F905000804000020F0B50025C40004F1A2
:1005AC00804404F5C0442368561C03F1005303F542
:1005BC00405376085B00AFB2BE4211D840088000B1
:1005CC0000F18040626000F5B840038823F0C0035E
:1005DC001B051B0D83F4004383F0B0030380F0BDB7
:1005EC0031F8157043F825700135E4E7F8B5144B74
:1005FC00144CB3F84C10227901F07F0191421CBFCE
:10060C0042F08002A3F84C201B8803F03003302BFF
:10061C0014D0256895B1E7882946082F3E4628BF97
:10062C00082600203246FFF7B7FF072FA7EB06037B
:10063C00E38093BF0023AD1925602360F8BD00BF94
:10064C00005C00400400002030B5C20002F1804282
:10065C0002F5C04203465068C0F3090000B31268AB
:10066C00441C02F1005202F540525200641002394F
:10067C0002EB840432F8045BA24221F8025FF9D148
:10068C005B089B0003F1804303F5B8431A8822F002
:10069C00F0029204920C82F4304282F080021A80B2
:1006AC0030BD73B53F4B404CDD68A3F580631B88B0
:1006BC00C5F3090513F4006609D094F90830002B32
:1006CC0017DA002539490120FFF7BEFF2582227A6F
:1006DC0002F07F0312063CD54EB373BB607A06283A
:1006EC000CD0082825D040BB02223149FFF754FF1B
:1006FC001DE0E289238A9A42E9D8E2E7012201A9A6
:10070C00019260890DF10202ADF8023000F056F84A
:10071C00E389BDF8022080209A4288BFADF80230F0
:10072C00BDF80230E380019B2360FFF75FFF02B04E
:10073C0070BD01221F491846D8E7012301930023FD
:10074C000DF1020201A91948ADF8023000F074F85D
:10075C00DEE76BB9627A052A05D162892271002223
:10076C0011461046C2E7092A02D16289A274F6E743
:10077C002A46218A0D4800F091F850B90E4A138888
:10078C0023F0F0039B049B0C83F4304383F0800331
:10079C001380238A1D44E389ADB2AB422582C6D8AF
:1007AC00DDE700BF00600040040000200C000020CA
:1007BC00C009000816000020005C004000F47F43D4
:1007CC00B3F5007F10D003D8B3F5807F07D0704706
:1007DC00B3F5407F10D0B3F5C06F09D070470F4B05
:1007EC000B601223138070470D4B0B601B23F9E732
:1007FC000C4B0B600A23F5E7C0B20328F3D8DFE8F3
:10080C0000F00207090B084B0B600B681B78E9E73B
:10081C00064BF9E7064BF7E7064BF5E7C20900086C
:10082C00D4090008EF090008FA090008FE090008BD
:10083C00140A0008260A000830B50378812B0CD165
:10084C004378062B1FD14388B3F5085F1BD10F4BA0
:10085C0001200B601623138030BDA12B13D14078DF
:10086C00012810D10A4B0B4C9B680B4D83F4007381
:10087C00C3F3402323702B78637001332B70022356
:10088C000C601380E8E70020E6E700BF2A0A0008A6
:10089C0000080140580000201700002010B57AB164
:1008AC00022A15D10B4C01202146FFF7CDFE2278F0
:1008BC00094B3AB180221A61627832B140221A6136
:1008CC00012010BD4FF40002F5E74FF48002F6E76B
:1008DC000020F6E758000020000C01404FF4800285
:1008EC00024B1A614FF400021A617047000C014070
:1008FC00002103E00A4B5B584350043109480A4B72
:10090C0042189A42F6D3094A02E0002342F8043B0B
:10091C00074B9A42F9D3FFF754FC00F00DF87047DF
:10092C00400A000800000020040000200400002001
:10093C005C000020FEE7000038B5FFF7EBFB1A4A1D
:10094C001A4C936943F00C0393612368A2F584322B
:10095C0023F0704343F040532360236823F070630B
:10096C0043F040732360236823F4700343F4401373
:10097C002360536823F00F0343F004035360536860
:10098C0023F0F00343F040035360FFF728FC62B6FA
:10099C00074DFFF71FFCE368284683F02003E36054
:1009AC00FFF710FCF5E700BF00100240000C0140FF
:1009BC00A086010000001201100100000008C01602
:1009CC00DF0501000102030109021B000101008087
:1009DC00320904000000030000000921010100019C
:1009EC002216000A060002000000080100000403A1
:1009FC000904160343004F004B0050004F005700F2
:100A0C0045004800450055001203550053004200B4
:100A1C0020007400650073007400040331000600AC
:100A2C00FF0901A101150026FF00750895020900B8
:040A3C00B20201C041
:040A40004000000072
:040000050800010CE2
:00000001FF
